{
  "_format": "hh-sol-artifact-1",
  "contractName": "Bridge",
  "sourceName": "contracts/Bridge.sol",
  "abi": [
    {
      "inputs": [],
      "stateMutability": "nonpayable",
      "type": "constructor"
    },
    {
      "inputs": [
        {
          "internalType": "address",
          "name": "target",
          "type": "address"
        }
      ],
      "name": "AddressEmptyCode",
      "type": "error"
    },
    {
      "inputs": [
        {
          "internalType": "address",
          "name": "account",
          "type": "address"
        }
      ],
      "name": "AddressInsufficientBalance",
      "type": "error"
    },
    {
      "inputs": [],
      "name": "AmountMustEqualValue",
      "type": "error"
    },
    {
      "inputs": [],
      "name": "FailedInnerCall",
      "type": "error"
    },
    {
      "inputs": [
        {
          "internalType": "uint256",
          "name": "amount",
          "type": "uint256"
        }
      ],
      "name": "InvalidAmount",
      "type": "error"
    },
    {
      "inputs": [],
      "name": "InvalidArgs",
      "type": "error"
    },
    {
      "inputs": [],
      "name": "InvalidProvider",
      "type": "error"
    },
    {
      "inputs": [],
      "name": "InvalidRecipientAddress",
      "type": "error"
    },
    {
      "inputs": [],
      "name": "InvalidValue",
      "type": "error"
    },
    {
      "inputs": [],
      "name": "OnlyEnabled",
      "type": "error"
    },
    {
      "inputs": [
        {
          "internalType": "address",
          "name": "owner",
          "type": "address"
        }
      ],
      "name": "OwnableInvalidOwner",
      "type": "error"
    },
    {
      "inputs": [
        {
          "internalType": "address",
          "name": "account",
          "type": "address"
        }
      ],
      "name": "OwnableUnauthorizedAccount",
      "type": "error"
    },
    {
      "inputs": [],
      "name": "ParamsError",
      "type": "error"
    },
    {
      "inputs": [],
      "name": "ReentrancyGuardReentrantCall",
      "type": "error"
    },
    {
      "inputs": [
        {
          "internalType": "address",
          "name": "token",
          "type": "address"
        }
      ],
      "name": "SafeERC20FailedOperation",
      "type": "error"
    },
    {
      "anonymous": false,
      "inputs": [
        {
          "indexed": false,
          "internalType": "address",
          "name": "sender",
          "type": "address"
        },
        {
          "indexed": false,
          "internalType": "address",
          "name": "provider",
          "type": "address"
        },
        {
          "indexed": false,
          "internalType": "address",
          "name": "token",
          "type": "address"
        },
        {
          "indexed": false,
          "internalType": "uint256",
          "name": "amount",
          "type": "uint256"
        },
        {
          "indexed": false,
          "internalType": "bytes",
          "name": "metadata",
          "type": "bytes"
        },
        {
          "indexed": false,
          "internalType": "uint256",
          "name": "index",
          "type": "uint256"
        }
      ],
      "name": "Bridged",
      "type": "event"
    },
    {
      "anonymous": false,
      "inputs": [
        {
          "indexed": false,
          "internalType": "bool",
          "name": "isEnabled",
          "type": "bool"
        }
      ],
      "name": "EnableChanged",
      "type": "event"
    },
    {
      "anonymous": false,
      "inputs": [
        {
          "indexed": true,
          "internalType": "address",
          "name": "previousOwner",
          "type": "address"
        },
        {
          "indexed": true,
          "internalType": "address",
          "name": "newOwner",
          "type": "address"
        }
      ],
      "name": "OwnershipTransferred",
      "type": "event"
    },
    {
      "anonymous": false,
      "inputs": [
        {
          "indexed": false,
          "internalType": "address",
          "name": "recipient",
          "type": "address"
        },
        {
          "indexed": false,
          "internalType": "address",
          "name": "provider",
          "type": "address"
        },
        {
          "indexed": false,
          "internalType": "address",
          "name": "token",
          "type": "address"
        },
        {
          "indexed": false,
          "internalType": "uint256",
          "name": "amount",
          "type": "uint256"
        },
        {
          "indexed": false,
          "internalType": "bytes",
          "name": "metadata",
          "type": "bytes"
        },
        {
          "indexed": false,
          "internalType": "uint256",
          "name": "index",
          "type": "uint256"
        }
      ],
      "name": "Released",
      "type": "event"
    },
    {
      "stateMutability": "nonpayable",
      "type": "fallback"
    },
    {
      "inputs": [
        {
          "internalType": "uint256",
          "name": "amount",
          "type": "uint256"
        },
        {
          "internalType": "address",
          "name": "token",
          "type": "address"
        },
        {
          "internalType": "address payable",
          "name": "provider",
          "type": "address"
        },
        {
          "internalType": "bytes",
          "name": "metadata",
          "type": "bytes"
        }
      ],
      "name": "bridge",
      "outputs": [],
      "stateMutability": "payable",
      "type": "function"
    },
    {
      "inputs": [
        {
          "internalType": "address",
          "name": "user",
          "type": "address"
        }
      ],
      "name": "bridgeIndex",
      "outputs": [
        {
          "internalType": "uint256",
          "name": "",
          "type": "uint256"
        }
      ],
      "stateMutability": "view",
      "type": "function"
    },
    {
      "inputs": [
        {
          "internalType": "bool",
          "name": "_isEnabled",
          "type": "bool"
        }
      ],
      "name": "initialize",
      "outputs": [],
      "stateMutability": "nonpayable",
      "type": "function"
    },
    {
      "inputs": [],
      "name": "isEnabled",
      "outputs": [
        {
          "internalType": "bool",
          "name": "",
          "type": "bool"
        }
      ],
      "stateMutability": "view",
      "type": "function"
    },
    {
      "inputs": [
        {
          "internalType": "uint256[]",
          "name": "amounts",
          "type": "uint256[]"
        },
        {
          "internalType": "address[]",
          "name": "tokens",
          "type": "address[]"
        },
        {
          "internalType": "address payable[]",
          "name": "recipients",
          "type": "address[]"
        },
        {
          "internalType": "bytes[]",
          "name": "metadatas",
          "type": "bytes[]"
        }
      ],
      "name": "multiRelease",
      "outputs": [],
      "stateMutability": "payable",
      "type": "function"
    },
    {
      "inputs": [],
      "name": "owner",
      "outputs": [
        {
          "internalType": "address",
          "name": "",
          "type": "address"
        }
      ],
      "stateMutability": "view",
      "type": "function"
    },
    {
      "inputs": [
        {
          "internalType": "uint256",
          "name": "amount",
          "type": "uint256"
        },
        {
          "internalType": "address",
          "name": "token",
          "type": "address"
        },
        {
          "internalType": "address payable",
          "name": "recipient",
          "type": "address"
        },
        {
          "internalType": "bytes",
          "name": "metadata",
          "type": "bytes"
        }
      ],
      "name": "release",
      "outputs": [],
      "stateMutability": "payable",
      "type": "function"
    },
    {
      "inputs": [
        {
          "internalType": "address",
          "name": "provider",
          "type": "address"
        }
      ],
      "name": "releaseIndex",
      "outputs": [
        {
          "internalType": "uint256",
          "name": "",
          "type": "uint256"
        }
      ],
      "stateMutability": "view",
      "type": "function"
    },
    {
      "inputs": [],
      "name": "renounceOwnership",
      "outputs": [],
      "stateMutability": "nonpayable",
      "type": "function"
    },
    {
      "inputs": [
        {
          "internalType": "bool",
          "name": "_isEnabled",
          "type": "bool"
        }
      ],
      "name": "setIsEnabled",
      "outputs": [],
      "stateMutability": "nonpayable",
      "type": "function"
    },
    {
      "inputs": [
        {
          "internalType": "address",
          "name": "newOwner",
          "type": "address"
        }
      ],
      "name": "transferOwnership",
      "outputs": [],
      "stateMutability": "nonpayable",
      "type": "function"
    }
  ],
  "bytecode": "0x60806040523480156200001157600080fd5b5033600073ffffffffffffffffffffffffffffffffffffffff168173ffffffffffffffffffffffffffffffffffffffff1603620000885760006040517f1e4fbdf70000000000000000000000000000000000000000000000000000000081526004016200007f9190620001b0565b60405180910390fd5b6200009981620000a760201b60201c565b5060018081905550620001cd565b60008060009054906101000a900473ffffffffffffffffffffffffffffffffffffffff169050816000806101000a81548173ffffffffffffffffffffffffffffffffffffffff021916908373ffffffffffffffffffffffffffffffffffffffff1602179055508173ffffffffffffffffffffffffffffffffffffffff168173ffffffffffffffffffffffffffffffffffffffff167f8be0079c531659141344cd1fd0a4f28419497f9722a3daafe3b4186f6b6457e060405160405180910390a35050565b600073ffffffffffffffffffffffffffffffffffffffff82169050919050565b600062000198826200016b565b9050919050565b620001aa816200018b565b82525050565b6000602082019050620001c760008301846200019f565b92915050565b61201f80620001dd6000396000f3fe6080604052600436106100a05760003560e01c8063b6f9750111610064578063b6f9750114610154578063c4b7f65b1461017d578063d5016af714610199578063d53a822f146101d6578063f2fde38b146101ff578063fba07f5f14610228576100a1565b806314ed8da7146100af5780636aa633b6146100cb578063715018a6146100f6578063784990541461010d5780638da5cb5b14610129576100a1565b5b3480156100ad57600080fd5b005b6100c960048036038101906100c49190611764565b610265565b005b3480156100d757600080fd5b506100e06103af565b6040516100ed9190611856565b60405180910390f35b34801561010257600080fd5b5061010b6103cf565b005b61012760048036038101906101229190611871565b6103e3565b005b34801561013557600080fd5b5061013e61065e565b60405161014b9190611903565b60405180910390f35b34801561016057600080fd5b5061017b6004803603810190610176919061194a565b610687565b005b61019760048036038101906101929190611871565b6106ec565b005b3480156101a557600080fd5b506101c060048036038101906101bb9190611977565b6107d0565b6040516101cd91906119b3565b60405180910390f35b3480156101e257600080fd5b506101fd60048036038101906101f8919061194a565b610822565b005b34801561020b57600080fd5b5061022660048036038101906102219190611977565b610850565b005b34801561023457600080fd5b5061024f600480360381019061024a9190611977565b6108d6565b60405161025c91906119b3565b60405180910390f35b61026d610928565b60000160009054906101000a900460ff166102b4576040517f4e63089900000000000000000000000000000000000000000000000000000000815260040160405180910390fd5b6102bc610955565b825184511415806102cf57508151845114155b806102dc57508051845114155b15610313576040517fa1ba07ee00000000000000000000000000000000000000000000000000000000815260040160405180910390fd5b60005b84518110156103a057610393858281518110610335576103346119ce565b5b60200260200101518583815181106103505761034f6119ce565b5b602002602001015185848151811061036b5761036a6119ce565b5b6020026020010151858581518110610386576103856119ce565b5b602002602001015161099b565b8080600101915050610316565b506103a9610b44565b50505050565b60006103b9610928565b60000160009054906101000a900460ff16905090565b6103d7610b4d565b6103e16000610bd4565b565b6103eb610928565b60000160009054906101000a900460ff16610432576040517f4e63089900000000000000000000000000000000000000000000000000000000815260040160405180910390fd5b61043a610955565b600073ffffffffffffffffffffffffffffffffffffffff168273ffffffffffffffffffffffffffffffffffffffff16036104a0576040517f7626db8200000000000000000000000000000000000000000000000000000000815260040160405180910390fd5b600084036104e557836040517f3728b83d0000000000000000000000000000000000000000000000000000000081526004016104dc91906119b3565b60405180910390fd5b600073ffffffffffffffffffffffffffffffffffffffff168373ffffffffffffffffffffffffffffffffffffffff161480156105215750348414155b15610558576040517fba19858900000000000000000000000000000000000000000000000000000000815260040160405180910390fd5b6000339050600073ffffffffffffffffffffffffffffffffffffffff168473ffffffffffffffffffffffffffffffffffffffff16036105bf576105ba348473ffffffffffffffffffffffffffffffffffffffff16610c9890919063ffffffff16565b6105ed565b6105ec8184878773ffffffffffffffffffffffffffffffffffffffff16610d85909392919063ffffffff16565b5b60006105f8826108d6565b90506106048284610e07565b61060d82610e7a565b7f297f17d10090e4dfa4e81099935283e1484b1f7138b03587e42793e2b091fa1d33858789878660405161064696959493929190611adb565b60405180910390a15050610658610b44565b50505050565b60008060009054906101000a900473ffffffffffffffffffffffffffffffffffffffff16905090565b61068f610b4d565b80610698610928565b60000160006101000a81548160ff0219169083151502179055507f3659fce67df53590a7b123b78110e4a82622aed9b1078a60fe06aa6072113644816040516106e19190611856565b60405180910390a150565b6106f4610928565b60000160009054906101000a900460ff1661073b576040517f4e63089900000000000000000000000000000000000000000000000000000000815260040160405180910390fd5b610743610955565b600073ffffffffffffffffffffffffffffffffffffffff168373ffffffffffffffffffffffffffffffffffffffff1614801561077f5750348414155b156107b6576040517fba19858900000000000000000000000000000000000000000000000000000000815260040160405180910390fd5b6107c28484848461099b565b6107ca610b44565b50505050565b60006107da610928565b60020160008373ffffffffffffffffffffffffffffffffffffffff1673ffffffffffffffffffffffffffffffffffffffff168152602001908152602001600020549050919050565b61082a610b4d565b80610833610928565b60000160006101000a81548160ff02191690831515021790555050565b610858610b4d565b600073ffffffffffffffffffffffffffffffffffffffff168173ffffffffffffffffffffffffffffffffffffffff16036108ca5760006040517f1e4fbdf70000000000000000000000000000000000000000000000000000000081526004016108c19190611903565b60405180910390fd5b6108d381610bd4565b50565b60006108e0610928565b60010160008373ffffffffffffffffffffffffffffffffffffffff1673ffffffffffffffffffffffffffffffffffffffff168152602001908152602001600020549050919050565b6000807f8d336be257b734a9c9d9c70acdccf086c956a38328b0ee2a29e5c0b10062ddd790508091505090565b600260015403610991576040517f3ee5aeb500000000000000000000000000000000000000000000000000000000815260040160405180910390fd5b6002600181905550565b600073ffffffffffffffffffffffffffffffffffffffff168273ffffffffffffffffffffffffffffffffffffffff1603610a01576040517f44d99fea00000000000000000000000000000000000000000000000000000000815260040160405180910390fd5b60008403610a4657836040517f3728b83d000000000000000000000000000000000000000000000000000000008152600401610a3d91906119b3565b60405180910390fd5b6000339050600073ffffffffffffffffffffffffffffffffffffffff168473ffffffffffffffffffffffffffffffffffffffff1603610aad57610aa8858473ffffffffffffffffffffffffffffffffffffffff16610c9890919063ffffffff16565b610adb565b610ada8184878773ffffffffffffffffffffffffffffffffffffffff16610d85909392919063ffffffff16565b5b6000610ae6826107d0565b9050610af28284610edd565b610afb82610f50565b7fd42158eb0ea2dc2dce92d3cd105f32a6a4dbc2016fd376f6adbd28bb3dc7b3fb848387898786604051610b3496959493929190611b43565b60405180910390a1505050505050565b60018081905550565b610b55610fb3565b73ffffffffffffffffffffffffffffffffffffffff16610b7361065e565b73ffffffffffffffffffffffffffffffffffffffff1614610bd257610b96610fb3565b6040517f118cdaa7000000000000000000000000000000000000000000000000000000008152600401610bc99190611903565b60405180910390fd5b565b60008060009054906101000a900473ffffffffffffffffffffffffffffffffffffffff169050816000806101000a81548173ffffffffffffffffffffffffffffffffffffffff021916908373ffffffffffffffffffffffffffffffffffffffff1602179055508173ffffffffffffffffffffffffffffffffffffffff168173ffffffffffffffffffffffffffffffffffffffff167f8be0079c531659141344cd1fd0a4f28419497f9722a3daafe3b4186f6b6457e060405160405180910390a35050565b80471015610cdd57306040517fcd786059000000000000000000000000000000000000000000000000000000008152600401610cd49190611903565b60405180910390fd5b60008273ffffffffffffffffffffffffffffffffffffffff1682604051610d0390611bdc565b60006040518083038185875af1925050503d8060008114610d40576040519150601f19603f3d011682016040523d82523d6000602084013e610d45565b606091505b5050905080610d80576040517f1425ea4200000000000000000000000000000000000000000000000000000000815260040160405180910390fd5b505050565b610e01848573ffffffffffffffffffffffffffffffffffffffff166323b872dd868686604051602401610dba93929190611bf1565b604051602081830303815290604052915060e01b6020820180517bffffffffffffffffffffffffffffffffffffffffffffffffffffffff8381831617835250505050610fbb565b50505050565b80610e10610928565b60030160008473ffffffffffffffffffffffffffffffffffffffff1673ffffffffffffffffffffffffffffffffffffffff1681526020019081526020016000206000610e5b856108d6565b81526020019081526020016000209081610e759190611e2a565b505050565b6001610e84610928565b60010160008373ffffffffffffffffffffffffffffffffffffffff1673ffffffffffffffffffffffffffffffffffffffff1681526020019081526020016000206000828254610ed39190611f2b565b9250508190555050565b80610ee6610928565b60040160008473ffffffffffffffffffffffffffffffffffffffff1673ffffffffffffffffffffffffffffffffffffffff1681526020019081526020016000206000610f31856107d0565b81526020019081526020016000209081610f4b9190611e2a565b505050565b6001610f5a610928565b60020160008373ffffffffffffffffffffffffffffffffffffffff1673ffffffffffffffffffffffffffffffffffffffff1681526020019081526020016000206000828254610fa99190611f2b565b9250508190555050565b600033905090565b6000610fe6828473ffffffffffffffffffffffffffffffffffffffff1661105290919063ffffffff16565b9050600081511415801561100b5750808060200190518101906110099190611f74565b155b1561104d57826040517f5274afe70000000000000000000000000000000000000000000000000000000081526004016110449190611903565b60405180910390fd5b505050565b606061106083836000611068565b905092915050565b6060814710156110af57306040517fcd7860590000000000000000000000000000000000000000000000000000000081526004016110a69190611903565b60405180910390fd5b6000808573ffffffffffffffffffffffffffffffffffffffff1684866040516110d89190611fd2565b60006040518083038185875af1925050503d8060008114611115576040519150601f19603f3d011682016040523d82523d6000602084013e61111a565b606091505b509150915061112a868383611135565b925050509392505050565b60608261114a57611145826111c4565b6111bc565b60008251148015611172575060008473ffffffffffffffffffffffffffffffffffffffff163b145b156111b457836040517f9996b3150000000000000000000000000000000000000000000000000000000081526004016111ab9190611903565b60405180910390fd5b8190506111bd565b5b9392505050565b6000815111156111d75780518082602001fd5b6040517f1425ea4200000000000000000000000000000000000000000000000000000000815260040160405180910390fd5b6000604051905090565b600080fd5b600080fd5b600080fd5b6000601f19601f8301169050919050565b7f4e487b7100000000000000000000000000000000000000000000000000000000600052604160045260246000fd5b61126b82611222565b810181811067ffffffffffffffff8211171561128a57611289611233565b5b80604052505050565b600061129d611209565b90506112a98282611262565b919050565b600067ffffffffffffffff8211156112c9576112c8611233565b5b602082029050602081019050919050565b600080fd5b6000819050919050565b6112f2816112df565b81146112fd57600080fd5b50565b60008135905061130f816112e9565b92915050565b6000611328611323846112ae565b611293565b9050808382526020820190506020840283018581111561134b5761134a6112da565b5b835b8181101561137457806113608882611300565b84526020840193505060208101905061134d565b5050509392505050565b600082601f8301126113935761139261121d565b5b81356113a3848260208601611315565b91505092915050565b600067ffffffffffffffff8211156113c7576113c6611233565b5b602082029050602081019050919050565b600073ffffffffffffffffffffffffffffffffffffffff82169050919050565b6000611403826113d8565b9050919050565b611413816113f8565b811461141e57600080fd5b50565b6000813590506114308161140a565b92915050565b6000611449611444846113ac565b611293565b9050808382526020820190506020840283018581111561146c5761146b6112da565b5b835b8181101561149557806114818882611421565b84526020840193505060208101905061146e565b5050509392505050565b600082601f8301126114b4576114b361121d565b5b81356114c4848260208601611436565b91505092915050565b600067ffffffffffffffff8211156114e8576114e7611233565b5b602082029050602081019050919050565b6000611504826113d8565b9050919050565b611514816114f9565b811461151f57600080fd5b50565b6000813590506115318161150b565b92915050565b600061154a611545846114cd565b611293565b9050808382526020820190506020840283018581111561156d5761156c6112da565b5b835b8181101561159657806115828882611522565b84526020840193505060208101905061156f565b5050509392505050565b600082601f8301126115b5576115b461121d565b5b81356115c5848260208601611537565b91505092915050565b600067ffffffffffffffff8211156115e9576115e8611233565b5b602082029050602081019050919050565b600080fd5b600067ffffffffffffffff82111561161a57611619611233565b5b61162382611222565b9050602081019050919050565b82818337600083830152505050565b600061165261164d846115ff565b611293565b90508281526020810184848401111561166e5761166d6115fa565b5b611679848285611630565b509392505050565b600082601f8301126116965761169561121d565b5b81356116a684826020860161163f565b91505092915050565b60006116c26116bd846115ce565b611293565b905080838252602082019050602084028301858111156116e5576116e46112da565b5b835b8181101561172c57803567ffffffffffffffff81111561170a5761170961121d565b5b8086016117178982611681565b855260208501945050506020810190506116e7565b5050509392505050565b600082601f83011261174b5761174a61121d565b5b813561175b8482602086016116af565b91505092915050565b6000806000806080858703121561177e5761177d611213565b5b600085013567ffffffffffffffff81111561179c5761179b611218565b5b6117a88782880161137e565b945050602085013567ffffffffffffffff8111156117c9576117c8611218565b5b6117d58782880161149f565b935050604085013567ffffffffffffffff8111156117f6576117f5611218565b5b611802878288016115a0565b925050606085013567ffffffffffffffff81111561182357611822611218565b5b61182f87828801611736565b91505092959194509250565b60008115159050919050565b6118508161183b565b82525050565b600060208201905061186b6000830184611847565b92915050565b6000806000806080858703121561188b5761188a611213565b5b600061189987828801611300565b94505060206118aa87828801611421565b93505060406118bb87828801611522565b925050606085013567ffffffffffffffff8111156118dc576118db611218565b5b6118e887828801611681565b91505092959194509250565b6118fd816113f8565b82525050565b600060208201905061191860008301846118f4565b92915050565b6119278161183b565b811461193257600080fd5b50565b6000813590506119448161191e565b92915050565b6000602082840312156119605761195f611213565b5b600061196e84828501611935565b91505092915050565b60006020828403121561198d5761198c611213565b5b600061199b84828501611421565b91505092915050565b6119ad816112df565b82525050565b60006020820190506119c860008301846119a4565b92915050565b7f4e487b7100000000000000000000000000000000000000000000000000000000600052603260045260246000fd5b6000819050919050565b6000611a22611a1d611a18846113d8565b6119fd565b6113d8565b9050919050565b6000611a3482611a07565b9050919050565b6000611a4682611a29565b9050919050565b611a5681611a3b565b82525050565b600081519050919050565b600082825260208201905092915050565b60005b83811015611a96578082015181840152602081019050611a7b565b60008484015250505050565b6000611aad82611a5c565b611ab78185611a67565b9350611ac7818560208601611a78565b611ad081611222565b840191505092915050565b600060c082019050611af060008301896118f4565b611afd6020830188611a4d565b611b0a60408301876118f4565b611b1760608301866119a4565b8181036080830152611b298185611aa2565b9050611b3860a08301846119a4565b979650505050505050565b600060c082019050611b586000830189611a4d565b611b6560208301886118f4565b611b7260408301876118f4565b611b7f60608301866119a4565b8181036080830152611b918185611aa2565b9050611ba060a08301846119a4565b979650505050505050565b600081905092915050565b50565b6000611bc6600083611bab565b9150611bd182611bb6565b600082019050919050565b6000611be782611bb9565b9150819050919050565b6000606082019050611c0660008301866118f4565b611c1360208301856118f4565b611c2060408301846119a4565b949350505050565b7f4e487b7100000000000000000000000000000000000000000000000000000000600052602260045260246000fd5b60006002820490506001821680611c6f57607f821691505b602082108103611c8257611c81611c28565b5b50919050565b60008190508160005260206000209050919050565b60006020601f8301049050919050565b600082821b905092915050565b600060088302611cea7fffffffffffffffffffffffffffffffffffffffffffffffffffffffffffffffff82611cad565b611cf48683611cad565b95508019841693508086168417925050509392505050565b6000611d27611d22611d1d846112df565b6119fd565b6112df565b9050919050565b6000819050919050565b611d4183611d0c565b611d55611d4d82611d2e565b848454611cba565b825550505050565b600090565b611d6a611d5d565b611d75818484611d38565b505050565b5b81811015611d9957611d8e600082611d62565b600181019050611d7b565b5050565b601f821115611dde57611daf81611c88565b611db884611c9d565b81016020851015611dc7578190505b611ddb611dd385611c9d565b830182611d7a565b50505b505050565b600082821c905092915050565b6000611e0160001984600802611de3565b1980831691505092915050565b6000611e1a8383611df0565b9150826002028217905092915050565b611e3382611a5c565b67ffffffffffffffff811115611e4c57611e4b611233565b5b611e568254611c57565b611e61828285611d9d565b600060209050601f831160018114611e945760008415611e82578287015190505b611e8c8582611e0e565b865550611ef4565b601f198416611ea286611c88565b60005b82811015611eca57848901518255600182019150602085019450602081019050611ea5565b86831015611ee75784890151611ee3601f891682611df0565b8355505b6001600288020188555050505b505050505050565b7f4e487b7100000000000000000000000000000000000000000000000000000000600052601160045260246000fd5b6000611f36826112df565b9150611f41836112df565b9250828201905080821115611f5957611f58611efc565b5b92915050565b600081519050611f6e8161191e565b92915050565b600060208284031215611f8a57611f89611213565b5b6000611f9884828501611f5f565b91505092915050565b6000611fac82611a5c565b611fb68185611bab565b9350611fc6818560208601611a78565b80840191505092915050565b6000611fde8284611fa1565b91508190509291505056fea2646970667358221220f1e6e6574dde8365ad4944284e4efc116a41631be5b50175eac53192e54c8c8f64736f6c63430008180033",
  "linkReferences": {},
  "deployedLinkReferences": {}
}