{
  "contracts/Bridge.sol": {
    "Bridge": {
      "abi": [
        {
          "inputs": [],
          "stateMutability": "nonpayable",
          "type": "constructor"
        },
        {
          "inputs": [
            {
              "internalType": "address",
              "name": "target",
              "type": "address"
            }
          ],
          "name": "AddressEmptyCode",
          "type": "error"
        },
        {
          "inputs": [
            {
              "internalType": "address",
              "name": "account",
              "type": "address"
            }
          ],
          "name": "AddressInsufficientBalance",
          "type": "error"
        },
        {
          "inputs": [],
          "name": "AmountMustEqualValue",
          "type": "error"
        },
        {
          "inputs": [],
          "name": "FailedInnerCall",
          "type": "error"
        },
        {
          "inputs": [
            {
              "internalType": "uint256",
              "name": "amount",
              "type": "uint256"
            }
          ],
          "name": "InvalidAmount",
          "type": "error"
        },
        {
          "inputs": [],
          "name": "InvalidArgs",
          "type": "error"
        },
        {
          "inputs": [],
          "name": "InvalidProvider",
          "type": "error"
        },
        {
          "inputs": [],
          "name": "InvalidRecipientAddress",
          "type": "error"
        },
        {
          "inputs": [],
          "name": "InvalidValue",
          "type": "error"
        },
        {
          "inputs": [],
          "name": "OnlyEnabled",
          "type": "error"
        },
        {
          "inputs": [
            {
              "internalType": "address",
              "name": "owner",
              "type": "address"
            }
          ],
          "name": "OwnableInvalidOwner",
          "type": "error"
        },
        {
          "inputs": [
            {
              "internalType": "address",
              "name": "account",
              "type": "address"
            }
          ],
          "name": "OwnableUnauthorizedAccount",
          "type": "error"
        },
        {
          "inputs": [],
          "name": "ParamsError",
          "type": "error"
        },
        {
          "inputs": [],
          "name": "ReentrancyGuardReentrantCall",
          "type": "error"
        },
        {
          "inputs": [
            {
              "internalType": "address",
              "name": "token",
              "type": "address"
            }
          ],
          "name": "SafeERC20FailedOperation",
          "type": "error"
        },
        {
          "anonymous": false,
          "inputs": [
            {
              "indexed": false,
              "internalType": "address",
              "name": "sender",
              "type": "address"
            },
            {
              "indexed": false,
              "internalType": "address",
              "name": "provider",
              "type": "address"
            },
            {
              "indexed": false,
              "internalType": "address",
              "name": "token",
              "type": "address"
            },
            {
              "indexed": false,
              "internalType": "uint256",
              "name": "amount",
              "type": "uint256"
            },
            {
              "indexed": false,
              "internalType": "bytes",
              "name": "metadata",
              "type": "bytes"
            },
            {
              "indexed": false,
              "internalType": "uint256",
              "name": "index",
              "type": "uint256"
            }
          ],
          "name": "Bridged",
          "type": "event"
        },
        {
          "anonymous": false,
          "inputs": [
            {
              "indexed": false,
              "internalType": "bool",
              "name": "isEnabled",
              "type": "bool"
            }
          ],
          "name": "EnableChanged",
          "type": "event"
        },
        {
          "anonymous": false,
          "inputs": [
            {
              "indexed": true,
              "internalType": "address",
              "name": "previousOwner",
              "type": "address"
            },
            {
              "indexed": true,
              "internalType": "address",
              "name": "newOwner",
              "type": "address"
            }
          ],
          "name": "OwnershipTransferred",
          "type": "event"
        },
        {
          "anonymous": false,
          "inputs": [
            {
              "indexed": false,
              "internalType": "address",
              "name": "recipient",
              "type": "address"
            },
            {
              "indexed": false,
              "internalType": "address",
              "name": "provider",
              "type": "address"
            },
            {
              "indexed": false,
              "internalType": "address",
              "name": "token",
              "type": "address"
            },
            {
              "indexed": false,
              "internalType": "uint256",
              "name": "amount",
              "type": "uint256"
            },
            {
              "indexed": false,
              "internalType": "bytes",
              "name": "metadata",
              "type": "bytes"
            },
            {
              "indexed": false,
              "internalType": "uint256",
              "name": "index",
              "type": "uint256"
            }
          ],
          "name": "Released",
          "type": "event"
        },
        {
          "stateMutability": "nonpayable",
          "type": "fallback"
        },
        {
          "inputs": [
            {
              "internalType": "uint256",
              "name": "amount",
              "type": "uint256"
            },
            {
              "internalType": "address",
              "name": "token",
              "type": "address"
            },
            {
              "internalType": "address payable",
              "name": "provider",
              "type": "address"
            },
            {
              "internalType": "bytes",
              "name": "metadata",
              "type": "bytes"
            }
          ],
          "name": "bridge",
          "outputs": [],
          "stateMutability": "payable",
          "type": "function"
        },
        {
          "inputs": [
            {
              "internalType": "address",
              "name": "user",
              "type": "address"
            }
          ],
          "name": "bridgeIndex",
          "outputs": [
            {
              "internalType": "uint256",
              "name": "",
              "type": "uint256"
            }
          ],
          "stateMutability": "view",
          "type": "function"
        },
        {
          "inputs": [
            {
              "internalType": "bool",
              "name": "_isEnabled",
              "type": "bool"
            }
          ],
          "name": "initialize",
          "outputs": [],
          "stateMutability": "nonpayable",
          "type": "function"
        },
        {
          "inputs": [],
          "name": "isEnabled",
          "outputs": [
            {
              "internalType": "bool",
              "name": "",
              "type": "bool"
            }
          ],
          "stateMutability": "view",
          "type": "function"
        },
        {
          "inputs": [
            {
              "internalType": "uint256[]",
              "name": "amounts",
              "type": "uint256[]"
            },
            {
              "internalType": "address[]",
              "name": "tokens",
              "type": "address[]"
            },
            {
              "internalType": "address payable[]",
              "name": "recipients",
              "type": "address[]"
            },
            {
              "internalType": "bytes[]",
              "name": "metadatas",
              "type": "bytes[]"
            }
          ],
          "name": "multiRelease",
          "outputs": [],
          "stateMutability": "payable",
          "type": "function"
        },
        {
          "inputs": [],
          "name": "owner",
          "outputs": [
            {
              "internalType": "address",
              "name": "",
              "type": "address"
            }
          ],
          "stateMutability": "view",
          "type": "function"
        },
        {
          "inputs": [
            {
              "internalType": "uint256",
              "name": "amount",
              "type": "uint256"
            },
            {
              "internalType": "address",
              "name": "token",
              "type": "address"
            },
            {
              "internalType": "address payable",
              "name": "recipient",
              "type": "address"
            },
            {
              "internalType": "bytes",
              "name": "metadata",
              "type": "bytes"
            }
          ],
          "name": "release",
          "outputs": [],
          "stateMutability": "payable",
          "type": "function"
        },
        {
          "inputs": [
            {
              "internalType": "address",
              "name": "provider",
              "type": "address"
            }
          ],
          "name": "releaseIndex",
          "outputs": [
            {
              "internalType": "uint256",
              "name": "",
              "type": "uint256"
            }
          ],
          "stateMutability": "view",
          "type": "function"
        },
        {
          "inputs": [],
          "name": "renounceOwnership",
          "outputs": [],
          "stateMutability": "nonpayable",
          "type": "function"
        },
        {
          "inputs": [
            {
              "internalType": "bool",
              "name": "_isEnabled",
              "type": "bool"
            }
          ],
          "name": "setIsEnabled",
          "outputs": [],
          "stateMutability": "nonpayable",
          "type": "function"
        },
        {
          "inputs": [
            {
              "internalType": "address",
              "name": "newOwner",
              "type": "address"
            }
          ],
          "name": "transferOwnership",
          "outputs": [],
          "stateMutability": "nonpayable",
          "type": "function"
        }
      ],
      "evm": {
        "bytecode": {
          "linkReferences": {},
          "object": "60806040523480156200001157600080fd5b5033600073ffffffffffffffffffffffffffffffffffffffff168173ffffffffffffffffffffffffffffffffffffffff1603620000885760006040517f1e4fbdf70000000000000000000000000000000000000000000000000000000081526004016200007f9190620001b0565b60405180910390fd5b6200009981620000a760201b60201c565b5060018081905550620001cd565b60008060009054906101000a900473ffffffffffffffffffffffffffffffffffffffff169050816000806101000a81548173ffffffffffffffffffffffffffffffffffffffff021916908373ffffffffffffffffffffffffffffffffffffffff1602179055508173ffffffffffffffffffffffffffffffffffffffff168173ffffffffffffffffffffffffffffffffffffffff167f8be0079c531659141344cd1fd0a4f28419497f9722a3daafe3b4186f6b6457e060405160405180910390a35050565b600073ffffffffffffffffffffffffffffffffffffffff82169050919050565b600062000198826200016b565b9050919050565b620001aa816200018b565b82525050565b6000602082019050620001c760008301846200019f565b92915050565b61201f80620001dd6000396000f3fe6080604052600436106100a05760003560e01c8063b6f9750111610064578063b6f9750114610154578063c4b7f65b1461017d578063d5016af714610199578063d53a822f146101d6578063f2fde38b146101ff578063fba07f5f14610228576100a1565b806314ed8da7146100af5780636aa633b6146100cb578063715018a6146100f6578063784990541461010d5780638da5cb5b14610129576100a1565b5b3480156100ad57600080fd5b005b6100c960048036038101906100c49190611764565b610265565b005b3480156100d757600080fd5b506100e06103af565b6040516100ed9190611856565b60405180910390f35b34801561010257600080fd5b5061010b6103cf565b005b61012760048036038101906101229190611871565b6103e3565b005b34801561013557600080fd5b5061013e61065e565b60405161014b9190611903565b60405180910390f35b34801561016057600080fd5b5061017b6004803603810190610176919061194a565b610687565b005b61019760048036038101906101929190611871565b6106ec565b005b3480156101a557600080fd5b506101c060048036038101906101bb9190611977565b6107d0565b6040516101cd91906119b3565b60405180910390f35b3480156101e257600080fd5b506101fd60048036038101906101f8919061194a565b610822565b005b34801561020b57600080fd5b5061022660048036038101906102219190611977565b610850565b005b34801561023457600080fd5b5061024f600480360381019061024a9190611977565b6108d6565b60405161025c91906119b3565b60405180910390f35b61026d610928565b60000160009054906101000a900460ff166102b4576040517f4e63089900000000000000000000000000000000000000000000000000000000815260040160405180910390fd5b6102bc610955565b825184511415806102cf57508151845114155b806102dc57508051845114155b15610313576040517fa1ba07ee00000000000000000000000000000000000000000000000000000000815260040160405180910390fd5b60005b84518110156103a057610393858281518110610335576103346119ce565b5b60200260200101518583815181106103505761034f6119ce565b5b602002602001015185848151811061036b5761036a6119ce565b5b6020026020010151858581518110610386576103856119ce565b5b602002602001015161099b565b8080600101915050610316565b506103a9610b44565b50505050565b60006103b9610928565b60000160009054906101000a900460ff16905090565b6103d7610b4d565b6103e16000610bd4565b565b6103eb610928565b60000160009054906101000a900460ff16610432576040517f4e63089900000000000000000000000000000000000000000000000000000000815260040160405180910390fd5b61043a610955565b600073ffffffffffffffffffffffffffffffffffffffff168273ffffffffffffffffffffffffffffffffffffffff16036104a0576040517f7626db8200000000000000000000000000000000000000000000000000000000815260040160405180910390fd5b600084036104e557836040517f3728b83d0000000000000000000000000000000000000000000000000000000081526004016104dc91906119b3565b60405180910390fd5b600073ffffffffffffffffffffffffffffffffffffffff168373ffffffffffffffffffffffffffffffffffffffff161480156105215750348414155b15610558576040517fba19858900000000000000000000000000000000000000000000000000000000815260040160405180910390fd5b6000339050600073ffffffffffffffffffffffffffffffffffffffff168473ffffffffffffffffffffffffffffffffffffffff16036105bf576105ba348473ffffffffffffffffffffffffffffffffffffffff16610c9890919063ffffffff16565b6105ed565b6105ec8184878773ffffffffffffffffffffffffffffffffffffffff16610d85909392919063ffffffff16565b5b60006105f8826108d6565b90506106048284610e07565b61060d82610e7a565b7f297f17d10090e4dfa4e81099935283e1484b1f7138b03587e42793e2b091fa1d33858789878660405161064696959493929190611adb565b60405180910390a15050610658610b44565b50505050565b60008060009054906101000a900473ffffffffffffffffffffffffffffffffffffffff16905090565b61068f610b4d565b80610698610928565b60000160006101000a81548160ff0219169083151502179055507f3659fce67df53590a7b123b78110e4a82622aed9b1078a60fe06aa6072113644816040516106e19190611856565b60405180910390a150565b6106f4610928565b60000160009054906101000a900460ff1661073b576040517f4e63089900000000000000000000000000000000000000000000000000000000815260040160405180910390fd5b610743610955565b600073ffffffffffffffffffffffffffffffffffffffff168373ffffffffffffffffffffffffffffffffffffffff1614801561077f5750348414155b156107b6576040517fba19858900000000000000000000000000000000000000000000000000000000815260040160405180910390fd5b6107c28484848461099b565b6107ca610b44565b50505050565b60006107da610928565b60020160008373ffffffffffffffffffffffffffffffffffffffff1673ffffffffffffffffffffffffffffffffffffffff168152602001908152602001600020549050919050565b61082a610b4d565b80610833610928565b60000160006101000a81548160ff02191690831515021790555050565b610858610b4d565b600073ffffffffffffffffffffffffffffffffffffffff168173ffffffffffffffffffffffffffffffffffffffff16036108ca5760006040517f1e4fbdf70000000000000000000000000000000000000000000000000000000081526004016108c19190611903565b60405180910390fd5b6108d381610bd4565b50565b60006108e0610928565b60010160008373ffffffffffffffffffffffffffffffffffffffff1673ffffffffffffffffffffffffffffffffffffffff168152602001908152602001600020549050919050565b6000807f8d336be257b734a9c9d9c70acdccf086c956a38328b0ee2a29e5c0b10062ddd790508091505090565b600260015403610991576040517f3ee5aeb500000000000000000000000000000000000000000000000000000000815260040160405180910390fd5b6002600181905550565b600073ffffffffffffffffffffffffffffffffffffffff168273ffffffffffffffffffffffffffffffffffffffff1603610a01576040517f44d99fea00000000000000000000000000000000000000000000000000000000815260040160405180910390fd5b60008403610a4657836040517f3728b83d000000000000000000000000000000000000000000000000000000008152600401610a3d91906119b3565b60405180910390fd5b6000339050600073ffffffffffffffffffffffffffffffffffffffff168473ffffffffffffffffffffffffffffffffffffffff1603610aad57610aa8858473ffffffffffffffffffffffffffffffffffffffff16610c9890919063ffffffff16565b610adb565b610ada8184878773ffffffffffffffffffffffffffffffffffffffff16610d85909392919063ffffffff16565b5b6000610ae6826107d0565b9050610af28284610edd565b610afb82610f50565b7fd42158eb0ea2dc2dce92d3cd105f32a6a4dbc2016fd376f6adbd28bb3dc7b3fb848387898786604051610b3496959493929190611b43565b60405180910390a1505050505050565b60018081905550565b610b55610fb3565b73ffffffffffffffffffffffffffffffffffffffff16610b7361065e565b73ffffffffffffffffffffffffffffffffffffffff1614610bd257610b96610fb3565b6040517f118cdaa7000000000000000000000000000000000000000000000000000000008152600401610bc99190611903565b60405180910390fd5b565b60008060009054906101000a900473ffffffffffffffffffffffffffffffffffffffff169050816000806101000a81548173ffffffffffffffffffffffffffffffffffffffff021916908373ffffffffffffffffffffffffffffffffffffffff1602179055508173ffffffffffffffffffffffffffffffffffffffff168173ffffffffffffffffffffffffffffffffffffffff167f8be0079c531659141344cd1fd0a4f28419497f9722a3daafe3b4186f6b6457e060405160405180910390a35050565b80471015610cdd57306040517fcd786059000000000000000000000000000000000000000000000000000000008152600401610cd49190611903565b60405180910390fd5b60008273ffffffffffffffffffffffffffffffffffffffff1682604051610d0390611bdc565b60006040518083038185875af1925050503d8060008114610d40576040519150601f19603f3d011682016040523d82523d6000602084013e610d45565b606091505b5050905080610d80576040517f1425ea4200000000000000000000000000000000000000000000000000000000815260040160405180910390fd5b505050565b610e01848573ffffffffffffffffffffffffffffffffffffffff166323b872dd868686604051602401610dba93929190611bf1565b604051602081830303815290604052915060e01b6020820180517bffffffffffffffffffffffffffffffffffffffffffffffffffffffff8381831617835250505050610fbb565b50505050565b80610e10610928565b60030160008473ffffffffffffffffffffffffffffffffffffffff1673ffffffffffffffffffffffffffffffffffffffff1681526020019081526020016000206000610e5b856108d6565b81526020019081526020016000209081610e759190611e2a565b505050565b6001610e84610928565b60010160008373ffffffffffffffffffffffffffffffffffffffff1673ffffffffffffffffffffffffffffffffffffffff1681526020019081526020016000206000828254610ed39190611f2b565b9250508190555050565b80610ee6610928565b60040160008473ffffffffffffffffffffffffffffffffffffffff1673ffffffffffffffffffffffffffffffffffffffff1681526020019081526020016000206000610f31856107d0565b81526020019081526020016000209081610f4b9190611e2a565b505050565b6001610f5a610928565b60020160008373ffffffffffffffffffffffffffffffffffffffff1673ffffffffffffffffffffffffffffffffffffffff1681526020019081526020016000206000828254610fa99190611f2b565b9250508190555050565b600033905090565b6000610fe6828473ffffffffffffffffffffffffffffffffffffffff1661105290919063ffffffff16565b9050600081511415801561100b5750808060200190518101906110099190611f74565b155b1561104d57826040517f5274afe70000000000000000000000000000000000000000000000000000000081526004016110449190611903565b60405180910390fd5b505050565b606061106083836000611068565b905092915050565b6060814710156110af57306040517fcd7860590000000000000000000000000000000000000000000000000000000081526004016110a69190611903565b60405180910390fd5b6000808573ffffffffffffffffffffffffffffffffffffffff1684866040516110d89190611fd2565b60006040518083038185875af1925050503d8060008114611115576040519150601f19603f3d011682016040523d82523d6000602084013e61111a565b606091505b509150915061112a868383611135565b925050509392505050565b60608261114a57611145826111c4565b6111bc565b60008251148015611172575060008473ffffffffffffffffffffffffffffffffffffffff163b145b156111b457836040517f9996b3150000000000000000000000000000000000000000000000000000000081526004016111ab9190611903565b60405180910390fd5b8190506111bd565b5b9392505050565b6000815111156111d75780518082602001fd5b6040517f1425ea4200000000000000000000000000000000000000000000000000000000815260040160405180910390fd5b6000604051905090565b600080fd5b600080fd5b600080fd5b6000601f19601f8301169050919050565b7f4e487b7100000000000000000000000000000000000000000000000000000000600052604160045260246000fd5b61126b82611222565b810181811067ffffffffffffffff8211171561128a57611289611233565b5b80604052505050565b600061129d611209565b90506112a98282611262565b919050565b600067ffffffffffffffff8211156112c9576112c8611233565b5b602082029050602081019050919050565b600080fd5b6000819050919050565b6112f2816112df565b81146112fd57600080fd5b50565b60008135905061130f816112e9565b92915050565b6000611328611323846112ae565b611293565b9050808382526020820190506020840283018581111561134b5761134a6112da565b5b835b8181101561137457806113608882611300565b84526020840193505060208101905061134d565b5050509392505050565b600082601f8301126113935761139261121d565b5b81356113a3848260208601611315565b91505092915050565b600067ffffffffffffffff8211156113c7576113c6611233565b5b602082029050602081019050919050565b600073ffffffffffffffffffffffffffffffffffffffff82169050919050565b6000611403826113d8565b9050919050565b611413816113f8565b811461141e57600080fd5b50565b6000813590506114308161140a565b92915050565b6000611449611444846113ac565b611293565b9050808382526020820190506020840283018581111561146c5761146b6112da565b5b835b8181101561149557806114818882611421565b84526020840193505060208101905061146e565b5050509392505050565b600082601f8301126114b4576114b361121d565b5b81356114c4848260208601611436565b91505092915050565b600067ffffffffffffffff8211156114e8576114e7611233565b5b602082029050602081019050919050565b6000611504826113d8565b9050919050565b611514816114f9565b811461151f57600080fd5b50565b6000813590506115318161150b565b92915050565b600061154a611545846114cd565b611293565b9050808382526020820190506020840283018581111561156d5761156c6112da565b5b835b8181101561159657806115828882611522565b84526020840193505060208101905061156f565b5050509392505050565b600082601f8301126115b5576115b461121d565b5b81356115c5848260208601611537565b91505092915050565b600067ffffffffffffffff8211156115e9576115e8611233565b5b602082029050602081019050919050565b600080fd5b600067ffffffffffffffff82111561161a57611619611233565b5b61162382611222565b9050602081019050919050565b82818337600083830152505050565b600061165261164d846115ff565b611293565b90508281526020810184848401111561166e5761166d6115fa565b5b611679848285611630565b509392505050565b600082601f8301126116965761169561121d565b5b81356116a684826020860161163f565b91505092915050565b60006116c26116bd846115ce565b611293565b905080838252602082019050602084028301858111156116e5576116e46112da565b5b835b8181101561172c57803567ffffffffffffffff81111561170a5761170961121d565b5b8086016117178982611681565b855260208501945050506020810190506116e7565b5050509392505050565b600082601f83011261174b5761174a61121d565b5b813561175b8482602086016116af565b91505092915050565b6000806000806080858703121561177e5761177d611213565b5b600085013567ffffffffffffffff81111561179c5761179b611218565b5b6117a88782880161137e565b945050602085013567ffffffffffffffff8111156117c9576117c8611218565b5b6117d58782880161149f565b935050604085013567ffffffffffffffff8111156117f6576117f5611218565b5b611802878288016115a0565b925050606085013567ffffffffffffffff81111561182357611822611218565b5b61182f87828801611736565b91505092959194509250565b60008115159050919050565b6118508161183b565b82525050565b600060208201905061186b6000830184611847565b92915050565b6000806000806080858703121561188b5761188a611213565b5b600061189987828801611300565b94505060206118aa87828801611421565b93505060406118bb87828801611522565b925050606085013567ffffffffffffffff8111156118dc576118db611218565b5b6118e887828801611681565b91505092959194509250565b6118fd816113f8565b82525050565b600060208201905061191860008301846118f4565b92915050565b6119278161183b565b811461193257600080fd5b50565b6000813590506119448161191e565b92915050565b6000602082840312156119605761195f611213565b5b600061196e84828501611935565b91505092915050565b60006020828403121561198d5761198c611213565b5b600061199b84828501611421565b91505092915050565b6119ad816112df565b82525050565b60006020820190506119c860008301846119a4565b92915050565b7f4e487b7100000000000000000000000000000000000000000000000000000000600052603260045260246000fd5b6000819050919050565b6000611a22611a1d611a18846113d8565b6119fd565b6113d8565b9050919050565b6000611a3482611a07565b9050919050565b6000611a4682611a29565b9050919050565b611a5681611a3b565b82525050565b600081519050919050565b600082825260208201905092915050565b60005b83811015611a96578082015181840152602081019050611a7b565b60008484015250505050565b6000611aad82611a5c565b611ab78185611a67565b9350611ac7818560208601611a78565b611ad081611222565b840191505092915050565b600060c082019050611af060008301896118f4565b611afd6020830188611a4d565b611b0a60408301876118f4565b611b1760608301866119a4565b8181036080830152611b298185611aa2565b9050611b3860a08301846119a4565b979650505050505050565b600060c082019050611b586000830189611a4d565b611b6560208301886118f4565b611b7260408301876118f4565b611b7f60608301866119a4565b8181036080830152611b918185611aa2565b9050611ba060a08301846119a4565b979650505050505050565b600081905092915050565b50565b6000611bc6600083611bab565b9150611bd182611bb6565b600082019050919050565b6000611be782611bb9565b9150819050919050565b6000606082019050611c0660008301866118f4565b611c1360208301856118f4565b611c2060408301846119a4565b949350505050565b7f4e487b7100000000000000000000000000000000000000000000000000000000600052602260045260246000fd5b60006002820490506001821680611c6f57607f821691505b602082108103611c8257611c81611c28565b5b50919050565b60008190508160005260206000209050919050565b60006020601f8301049050919050565b600082821b905092915050565b600060088302611cea7fffffffffffffffffffffffffffffffffffffffffffffffffffffffffffffffff82611cad565b611cf48683611cad565b95508019841693508086168417925050509392505050565b6000611d27611d22611d1d846112df565b6119fd565b6112df565b9050919050565b6000819050919050565b611d4183611d0c565b611d55611d4d82611d2e565b848454611cba565b825550505050565b600090565b611d6a611d5d565b611d75818484611d38565b505050565b5b81811015611d9957611d8e600082611d62565b600181019050611d7b565b5050565b601f821115611dde57611daf81611c88565b611db884611c9d565b81016020851015611dc7578190505b611ddb611dd385611c9d565b830182611d7a565b50505b505050565b600082821c905092915050565b6000611e0160001984600802611de3565b1980831691505092915050565b6000611e1a8383611df0565b9150826002028217905092915050565b611e3382611a5c565b67ffffffffffffffff811115611e4c57611e4b611233565b5b611e568254611c57565b611e61828285611d9d565b600060209050601f831160018114611e945760008415611e82578287015190505b611e8c8582611e0e565b865550611ef4565b601f198416611ea286611c88565b60005b82811015611eca57848901518255600182019150602085019450602081019050611ea5565b86831015611ee75784890151611ee3601f891682611df0565b8355505b6001600288020188555050505b505050505050565b7f4e487b7100000000000000000000000000000000000000000000000000000000600052601160045260246000fd5b6000611f36826112df565b9150611f41836112df565b9250828201905080821115611f5957611f58611efc565b5b92915050565b600081519050611f6e8161191e565b92915050565b600060208284031215611f8a57611f89611213565b5b6000611f9884828501611f5f565b91505092915050565b6000611fac82611a5c565b611fb68185611bab565b9350611fc6818560208601611a78565b80840191505092915050565b6000611fde8284611fa1565b91508190509291505056fea2646970667358221220f1e6e6574dde8365ad4944284e4efc116a41631be5b50175eac53192e54c8c8f64736f6c63430008180033",
          "opcodes": "PUSH1 0x80 PUSH1 0x40 MSTORE CALLVALUE DUP1 ISZERO PUSH3 0x11 JUMPI PUSH1 0x0 DUP1 REVERT JUMPDEST POP CALLER PUSH1 0x0 PUSH20 0xFFFFFFFFFFFFFFFFFFFFFFFFFFFFFFFFFFFFFFFF AND DUP2 PUSH20 0xFFFFFFFFFFFFFFFFFFFFFFFFFFFFFFFFFFFFFFFF AND SUB PUSH3 0x88 JUMPI PUSH1 0x0 PUSH1 0x40 MLOAD PUSH32 0x1E4FBDF700000000000000000000000000000000000000000000000000000000 DUP2 MSTORE PUSH1 0x4 ADD PUSH3 0x7F SWAP2 SWAP1 PUSH3 0x1B0 JUMP JUMPDEST PUSH1 0x40 MLOAD DUP1 SWAP2 SUB SWAP1 REVERT JUMPDEST PUSH3 0x99 DUP2 PUSH3 0xA7 PUSH1 0x20 SHL PUSH1 0x20 SHR JUMP JUMPDEST POP PUSH1 0x1 DUP1 DUP2 SWAP1 SSTORE POP PUSH3 0x1CD JUMP JUMPDEST PUSH1 0x0 DUP1 PUSH1 0x0 SWAP1 SLOAD SWAP1 PUSH2 0x100 EXP SWAP1 DIV PUSH20 0xFFFFFFFFFFFFFFFFFFFFFFFFFFFFFFFFFFFFFFFF AND SWAP1 POP DUP2 PUSH1 0x0 DUP1 PUSH2 0x100 EXP DUP2 SLOAD DUP2 PUSH20 0xFFFFFFFFFFFFFFFFFFFFFFFFFFFFFFFFFFFFFFFF MUL NOT AND SWAP1 DUP4 PUSH20 0xFFFFFFFFFFFFFFFFFFFFFFFFFFFFFFFFFFFFFFFF AND MUL OR SWAP1 SSTORE POP DUP2 PUSH20 0xFFFFFFFFFFFFFFFFFFFFFFFFFFFFFFFFFFFFFFFF AND DUP2 PUSH20 0xFFFFFFFFFFFFFFFFFFFFFFFFFFFFFFFFFFFFFFFF AND PUSH32 0x8BE0079C531659141344CD1FD0A4F28419497F9722A3DAAFE3B4186F6B6457E0 PUSH1 0x40 MLOAD PUSH1 0x40 MLOAD DUP1 SWAP2 SUB SWAP1 LOG3 POP POP JUMP JUMPDEST PUSH1 0x0 PUSH20 0xFFFFFFFFFFFFFFFFFFFFFFFFFFFFFFFFFFFFFFFF DUP3 AND SWAP1 POP SWAP2 SWAP1 POP JUMP JUMPDEST PUSH1 0x0 PUSH3 0x198 DUP3 PUSH3 0x16B JUMP JUMPDEST SWAP1 POP SWAP2 SWAP1 POP JUMP JUMPDEST PUSH3 0x1AA DUP2 PUSH3 0x18B JUMP JUMPDEST DUP3 MSTORE POP POP JUMP JUMPDEST PUSH1 0x0 PUSH1 0x20 DUP3 ADD SWAP1 POP PUSH3 0x1C7 PUSH1 0x0 DUP4 ADD DUP5 PUSH3 0x19F JUMP JUMPDEST SWAP3 SWAP2 POP POP JUMP JUMPDEST PUSH2 0x201F DUP1 PUSH3 0x1DD PUSH1 0x0 CODECOPY PUSH1 0x0 RETURN INVALID PUSH1 0x80 PUSH1 0x40 MSTORE PUSH1 0x4 CALLDATASIZE LT PUSH2 0xA0 JUMPI PUSH1 0x0 CALLDATALOAD PUSH1 0xE0 SHR DUP1 PUSH4 0xB6F97501 GT PUSH2 0x64 JUMPI DUP1 PUSH4 0xB6F97501 EQ PUSH2 0x154 JUMPI DUP1 PUSH4 0xC4B7F65B EQ PUSH2 0x17D JUMPI DUP1 PUSH4 0xD5016AF7 EQ PUSH2 0x199 JUMPI DUP1 PUSH4 0xD53A822F EQ PUSH2 0x1D6 JUMPI DUP1 PUSH4 0xF2FDE38B EQ PUSH2 0x1FF JUMPI DUP1 PUSH4 0xFBA07F5F EQ PUSH2 0x228 JUMPI PUSH2 0xA1 JUMP JUMPDEST DUP1 PUSH4 0x14ED8DA7 EQ PUSH2 0xAF JUMPI DUP1 PUSH4 0x6AA633B6 EQ PUSH2 0xCB JUMPI DUP1 PUSH4 0x715018A6 EQ PUSH2 0xF6 JUMPI DUP1 PUSH4 0x78499054 EQ PUSH2 0x10D JUMPI DUP1 PUSH4 0x8DA5CB5B EQ PUSH2 0x129 JUMPI PUSH2 0xA1 JUMP JUMPDEST JUMPDEST CALLVALUE DUP1 ISZERO PUSH2 0xAD JUMPI PUSH1 0x0 DUP1 REVERT JUMPDEST STOP JUMPDEST PUSH2 0xC9 PUSH1 0x4 DUP1 CALLDATASIZE SUB DUP2 ADD SWAP1 PUSH2 0xC4 SWAP2 SWAP1 PUSH2 0x1764 JUMP JUMPDEST PUSH2 0x265 JUMP JUMPDEST STOP JUMPDEST CALLVALUE DUP1 ISZERO PUSH2 0xD7 JUMPI PUSH1 0x0 DUP1 REVERT JUMPDEST POP PUSH2 0xE0 PUSH2 0x3AF JUMP JUMPDEST PUSH1 0x40 MLOAD PUSH2 0xED SWAP2 SWAP1 PUSH2 0x1856 JUMP JUMPDEST PUSH1 0x40 MLOAD DUP1 SWAP2 SUB SWAP1 RETURN JUMPDEST CALLVALUE DUP1 ISZERO PUSH2 0x102 JUMPI PUSH1 0x0 DUP1 REVERT JUMPDEST POP PUSH2 0x10B PUSH2 0x3CF JUMP JUMPDEST STOP JUMPDEST PUSH2 0x127 PUSH1 0x4 DUP1 CALLDATASIZE SUB DUP2 ADD SWAP1 PUSH2 0x122 SWAP2 SWAP1 PUSH2 0x1871 JUMP JUMPDEST PUSH2 0x3E3 JUMP JUMPDEST STOP JUMPDEST CALLVALUE DUP1 ISZERO PUSH2 0x135 JUMPI PUSH1 0x0 DUP1 REVERT JUMPDEST POP PUSH2 0x13E PUSH2 0x65E JUMP JUMPDEST PUSH1 0x40 MLOAD PUSH2 0x14B SWAP2 SWAP1 PUSH2 0x1903 JUMP JUMPDEST PUSH1 0x40 MLOAD DUP1 SWAP2 SUB SWAP1 RETURN JUMPDEST CALLVALUE DUP1 ISZERO PUSH2 0x160 JUMPI PUSH1 0x0 DUP1 REVERT JUMPDEST POP PUSH2 0x17B PUSH1 0x4 DUP1 CALLDATASIZE SUB DUP2 ADD SWAP1 PUSH2 0x176 SWAP2 SWAP1 PUSH2 0x194A JUMP JUMPDEST PUSH2 0x687 JUMP JUMPDEST STOP JUMPDEST PUSH2 0x197 PUSH1 0x4 DUP1 CALLDATASIZE SUB DUP2 ADD SWAP1 PUSH2 0x192 SWAP2 SWAP1 PUSH2 0x1871 JUMP JUMPDEST PUSH2 0x6EC JUMP JUMPDEST STOP JUMPDEST CALLVALUE DUP1 ISZERO PUSH2 0x1A5 JUMPI PUSH1 0x0 DUP1 REVERT JUMPDEST POP PUSH2 0x1C0 PUSH1 0x4 DUP1 CALLDATASIZE SUB DUP2 ADD SWAP1 PUSH2 0x1BB SWAP2 SWAP1 PUSH2 0x1977 JUMP JUMPDEST PUSH2 0x7D0 JUMP JUMPDEST PUSH1 0x40 MLOAD PUSH2 0x1CD SWAP2 SWAP1 PUSH2 0x19B3 JUMP JUMPDEST PUSH1 0x40 MLOAD DUP1 SWAP2 SUB SWAP1 RETURN JUMPDEST CALLVALUE DUP1 ISZERO PUSH2 0x1E2 JUMPI PUSH1 0x0 DUP1 REVERT JUMPDEST POP PUSH2 0x1FD PUSH1 0x4 DUP1 CALLDATASIZE SUB DUP2 ADD SWAP1 PUSH2 0x1F8 SWAP2 SWAP1 PUSH2 0x194A JUMP JUMPDEST PUSH2 0x822 JUMP JUMPDEST STOP JUMPDEST CALLVALUE DUP1 ISZERO PUSH2 0x20B JUMPI PUSH1 0x0 DUP1 REVERT JUMPDEST POP PUSH2 0x226 PUSH1 0x4 DUP1 CALLDATASIZE SUB DUP2 ADD SWAP1 PUSH2 0x221 SWAP2 SWAP1 PUSH2 0x1977 JUMP JUMPDEST PUSH2 0x850 JUMP JUMPDEST STOP JUMPDEST CALLVALUE DUP1 ISZERO PUSH2 0x234 JUMPI PUSH1 0x0 DUP1 REVERT JUMPDEST POP PUSH2 0x24F PUSH1 0x4 DUP1 CALLDATASIZE SUB DUP2 ADD SWAP1 PUSH2 0x24A SWAP2 SWAP1 PUSH2 0x1977 JUMP JUMPDEST PUSH2 0x8D6 JUMP JUMPDEST PUSH1 0x40 MLOAD PUSH2 0x25C SWAP2 SWAP1 PUSH2 0x19B3 JUMP JUMPDEST PUSH1 0x40 MLOAD DUP1 SWAP2 SUB SWAP1 RETURN JUMPDEST PUSH2 0x26D PUSH2 0x928 JUMP JUMPDEST PUSH1 0x0 ADD PUSH1 0x0 SWAP1 SLOAD SWAP1 PUSH2 0x100 EXP SWAP1 DIV PUSH1 0xFF AND PUSH2 0x2B4 JUMPI PUSH1 0x40 MLOAD PUSH32 0x4E63089900000000000000000000000000000000000000000000000000000000 DUP2 MSTORE PUSH1 0x4 ADD PUSH1 0x40 MLOAD DUP1 SWAP2 SUB SWAP1 REVERT JUMPDEST PUSH2 0x2BC PUSH2 0x955 JUMP JUMPDEST DUP3 MLOAD DUP5 MLOAD EQ ISZERO DUP1 PUSH2 0x2CF JUMPI POP DUP2 MLOAD DUP5 MLOAD EQ ISZERO JUMPDEST DUP1 PUSH2 0x2DC JUMPI POP DUP1 MLOAD DUP5 MLOAD EQ ISZERO JUMPDEST ISZERO PUSH2 0x313 JUMPI PUSH1 0x40 MLOAD PUSH32 0xA1BA07EE00000000000000000000000000000000000000000000000000000000 DUP2 MSTORE PUSH1 0x4 ADD PUSH1 0x40 MLOAD DUP1 SWAP2 SUB SWAP1 REVERT JUMPDEST PUSH1 0x0 JUMPDEST DUP5 MLOAD DUP2 LT ISZERO PUSH2 0x3A0 JUMPI PUSH2 0x393 DUP6 DUP3 DUP2 MLOAD DUP2 LT PUSH2 0x335 JUMPI PUSH2 0x334 PUSH2 0x19CE JUMP JUMPDEST JUMPDEST PUSH1 0x20 MUL PUSH1 0x20 ADD ADD MLOAD DUP6 DUP4 DUP2 MLOAD DUP2 LT PUSH2 0x350 JUMPI PUSH2 0x34F PUSH2 0x19CE JUMP JUMPDEST JUMPDEST PUSH1 0x20 MUL PUSH1 0x20 ADD ADD MLOAD DUP6 DUP5 DUP2 MLOAD DUP2 LT PUSH2 0x36B JUMPI PUSH2 0x36A PUSH2 0x19CE JUMP JUMPDEST JUMPDEST PUSH1 0x20 MUL PUSH1 0x20 ADD ADD MLOAD DUP6 DUP6 DUP2 MLOAD DUP2 LT PUSH2 0x386 JUMPI PUSH2 0x385 PUSH2 0x19CE JUMP JUMPDEST JUMPDEST PUSH1 0x20 MUL PUSH1 0x20 ADD ADD MLOAD PUSH2 0x99B JUMP JUMPDEST DUP1 DUP1 PUSH1 0x1 ADD SWAP2 POP POP PUSH2 0x316 JUMP JUMPDEST POP PUSH2 0x3A9 PUSH2 0xB44 JUMP JUMPDEST POP POP POP POP JUMP JUMPDEST PUSH1 0x0 PUSH2 0x3B9 PUSH2 0x928 JUMP JUMPDEST PUSH1 0x0 ADD PUSH1 0x0 SWAP1 SLOAD SWAP1 PUSH2 0x100 EXP SWAP1 DIV PUSH1 0xFF AND SWAP1 POP SWAP1 JUMP JUMPDEST PUSH2 0x3D7 PUSH2 0xB4D JUMP JUMPDEST PUSH2 0x3E1 PUSH1 0x0 PUSH2 0xBD4 JUMP JUMPDEST JUMP JUMPDEST PUSH2 0x3EB PUSH2 0x928 JUMP JUMPDEST PUSH1 0x0 ADD PUSH1 0x0 SWAP1 SLOAD SWAP1 PUSH2 0x100 EXP SWAP1 DIV PUSH1 0xFF AND PUSH2 0x432 JUMPI PUSH1 0x40 MLOAD PUSH32 0x4E63089900000000000000000000000000000000000000000000000000000000 DUP2 MSTORE PUSH1 0x4 ADD PUSH1 0x40 MLOAD DUP1 SWAP2 SUB SWAP1 REVERT JUMPDEST PUSH2 0x43A PUSH2 0x955 JUMP JUMPDEST PUSH1 0x0 PUSH20 0xFFFFFFFFFFFFFFFFFFFFFFFFFFFFFFFFFFFFFFFF AND DUP3 PUSH20 0xFFFFFFFFFFFFFFFFFFFFFFFFFFFFFFFFFFFFFFFF AND SUB PUSH2 0x4A0 JUMPI PUSH1 0x40 MLOAD PUSH32 0x7626DB8200000000000000000000000000000000000000000000000000000000 DUP2 MSTORE PUSH1 0x4 ADD PUSH1 0x40 MLOAD DUP1 SWAP2 SUB SWAP1 REVERT JUMPDEST PUSH1 0x0 DUP5 SUB PUSH2 0x4E5 JUMPI DUP4 PUSH1 0x40 MLOAD PUSH32 0x3728B83D00000000000000000000000000000000000000000000000000000000 DUP2 MSTORE PUSH1 0x4 ADD PUSH2 0x4DC SWAP2 SWAP1 PUSH2 0x19B3 JUMP JUMPDEST PUSH1 0x40 MLOAD DUP1 SWAP2 SUB SWAP1 REVERT JUMPDEST PUSH1 0x0 PUSH20 0xFFFFFFFFFFFFFFFFFFFFFFFFFFFFFFFFFFFFFFFF AND DUP4 PUSH20 0xFFFFFFFFFFFFFFFFFFFFFFFFFFFFFFFFFFFFFFFF AND EQ DUP1 ISZERO PUSH2 0x521 JUMPI POP CALLVALUE DUP5 EQ ISZERO JUMPDEST ISZERO PUSH2 0x558 JUMPI PUSH1 0x40 MLOAD PUSH32 0xBA19858900000000000000000000000000000000000000000000000000000000 DUP2 MSTORE PUSH1 0x4 ADD PUSH1 0x40 MLOAD DUP1 SWAP2 SUB SWAP1 REVERT JUMPDEST PUSH1 0x0 CALLER SWAP1 POP PUSH1 0x0 PUSH20 0xFFFFFFFFFFFFFFFFFFFFFFFFFFFFFFFFFFFFFFFF AND DUP5 PUSH20 0xFFFFFFFFFFFFFFFFFFFFFFFFFFFFFFFFFFFFFFFF AND SUB PUSH2 0x5BF JUMPI PUSH2 0x5BA CALLVALUE DUP5 PUSH20 0xFFFFFFFFFFFFFFFFFFFFFFFFFFFFFFFFFFFFFFFF AND PUSH2 0xC98 SWAP1 SWAP2 SWAP1 PUSH4 0xFFFFFFFF AND JUMP JUMPDEST PUSH2 0x5ED JUMP JUMPDEST PUSH2 0x5EC DUP2 DUP5 DUP8 DUP8 PUSH20 0xFFFFFFFFFFFFFFFFFFFFFFFFFFFFFFFFFFFFFFFF AND PUSH2 0xD85 SWAP1 SWAP4 SWAP3 SWAP2 SWAP1 PUSH4 0xFFFFFFFF AND JUMP JUMPDEST JUMPDEST PUSH1 0x0 PUSH2 0x5F8 DUP3 PUSH2 0x8D6 JUMP JUMPDEST SWAP1 POP PUSH2 0x604 DUP3 DUP5 PUSH2 0xE07 JUMP JUMPDEST PUSH2 0x60D DUP3 PUSH2 0xE7A JUMP JUMPDEST PUSH32 0x297F17D10090E4DFA4E81099935283E1484B1F7138B03587E42793E2B091FA1D CALLER DUP6 DUP8 DUP10 DUP8 DUP7 PUSH1 0x40 MLOAD PUSH2 0x646 SWAP7 SWAP6 SWAP5 SWAP4 SWAP3 SWAP2 SWAP1 PUSH2 0x1ADB JUMP JUMPDEST PUSH1 0x40 MLOAD DUP1 SWAP2 SUB SWAP1 LOG1 POP POP PUSH2 0x658 PUSH2 0xB44 JUMP JUMPDEST POP POP POP POP JUMP JUMPDEST PUSH1 0x0 DUP1 PUSH1 0x0 SWAP1 SLOAD SWAP1 PUSH2 0x100 EXP SWAP1 DIV PUSH20 0xFFFFFFFFFFFFFFFFFFFFFFFFFFFFFFFFFFFFFFFF AND SWAP1 POP SWAP1 JUMP JUMPDEST PUSH2 0x68F PUSH2 0xB4D JUMP JUMPDEST DUP1 PUSH2 0x698 PUSH2 0x928 JUMP JUMPDEST PUSH1 0x0 ADD PUSH1 0x0 PUSH2 0x100 EXP DUP2 SLOAD DUP2 PUSH1 0xFF MUL NOT AND SWAP1 DUP4 ISZERO ISZERO MUL OR SWAP1 SSTORE POP PUSH32 0x3659FCE67DF53590A7B123B78110E4A82622AED9B1078A60FE06AA6072113644 DUP2 PUSH1 0x40 MLOAD PUSH2 0x6E1 SWAP2 SWAP1 PUSH2 0x1856 JUMP JUMPDEST PUSH1 0x40 MLOAD DUP1 SWAP2 SUB SWAP1 LOG1 POP JUMP JUMPDEST PUSH2 0x6F4 PUSH2 0x928 JUMP JUMPDEST PUSH1 0x0 ADD PUSH1 0x0 SWAP1 SLOAD SWAP1 PUSH2 0x100 EXP SWAP1 DIV PUSH1 0xFF AND PUSH2 0x73B JUMPI PUSH1 0x40 MLOAD PUSH32 0x4E63089900000000000000000000000000000000000000000000000000000000 DUP2 MSTORE PUSH1 0x4 ADD PUSH1 0x40 MLOAD DUP1 SWAP2 SUB SWAP1 REVERT JUMPDEST PUSH2 0x743 PUSH2 0x955 JUMP JUMPDEST PUSH1 0x0 PUSH20 0xFFFFFFFFFFFFFFFFFFFFFFFFFFFFFFFFFFFFFFFF AND DUP4 PUSH20 0xFFFFFFFFFFFFFFFFFFFFFFFFFFFFFFFFFFFFFFFF AND EQ DUP1 ISZERO PUSH2 0x77F JUMPI POP CALLVALUE DUP5 EQ ISZERO JUMPDEST ISZERO PUSH2 0x7B6 JUMPI PUSH1 0x40 MLOAD PUSH32 0xBA19858900000000000000000000000000000000000000000000000000000000 DUP2 MSTORE PUSH1 0x4 ADD PUSH1 0x40 MLOAD DUP1 SWAP2 SUB SWAP1 REVERT JUMPDEST PUSH2 0x7C2 DUP5 DUP5 DUP5 DUP5 PUSH2 0x99B JUMP JUMPDEST PUSH2 0x7CA PUSH2 0xB44 JUMP JUMPDEST POP POP POP POP JUMP JUMPDEST PUSH1 0x0 PUSH2 0x7DA PUSH2 0x928 JUMP JUMPDEST PUSH1 0x2 ADD PUSH1 0x0 DUP4 PUSH20 0xFFFFFFFFFFFFFFFFFFFFFFFFFFFFFFFFFFFFFFFF AND PUSH20 0xFFFFFFFFFFFFFFFFFFFFFFFFFFFFFFFFFFFFFFFF AND DUP2 MSTORE PUSH1 0x20 ADD SWAP1 DUP2 MSTORE PUSH1 0x20 ADD PUSH1 0x0 KECCAK256 SLOAD SWAP1 POP SWAP2 SWAP1 POP JUMP JUMPDEST PUSH2 0x82A PUSH2 0xB4D JUMP JUMPDEST DUP1 PUSH2 0x833 PUSH2 0x928 JUMP JUMPDEST PUSH1 0x0 ADD PUSH1 0x0 PUSH2 0x100 EXP DUP2 SLOAD DUP2 PUSH1 0xFF MUL NOT AND SWAP1 DUP4 ISZERO ISZERO MUL OR SWAP1 SSTORE POP POP JUMP JUMPDEST PUSH2 0x858 PUSH2 0xB4D JUMP JUMPDEST PUSH1 0x0 PUSH20 0xFFFFFFFFFFFFFFFFFFFFFFFFFFFFFFFFFFFFFFFF AND DUP2 PUSH20 0xFFFFFFFFFFFFFFFFFFFFFFFFFFFFFFFFFFFFFFFF AND SUB PUSH2 0x8CA JUMPI PUSH1 0x0 PUSH1 0x40 MLOAD PUSH32 0x1E4FBDF700000000000000000000000000000000000000000000000000000000 DUP2 MSTORE PUSH1 0x4 ADD PUSH2 0x8C1 SWAP2 SWAP1 PUSH2 0x1903 JUMP JUMPDEST PUSH1 0x40 MLOAD DUP1 SWAP2 SUB SWAP1 REVERT JUMPDEST PUSH2 0x8D3 DUP2 PUSH2 0xBD4 JUMP JUMPDEST POP JUMP JUMPDEST PUSH1 0x0 PUSH2 0x8E0 PUSH2 0x928 JUMP JUMPDEST PUSH1 0x1 ADD PUSH1 0x0 DUP4 PUSH20 0xFFFFFFFFFFFFFFFFFFFFFFFFFFFFFFFFFFFFFFFF AND PUSH20 0xFFFFFFFFFFFFFFFFFFFFFFFFFFFFFFFFFFFFFFFF AND DUP2 MSTORE PUSH1 0x20 ADD SWAP1 DUP2 MSTORE PUSH1 0x20 ADD PUSH1 0x0 KECCAK256 SLOAD SWAP1 POP SWAP2 SWAP1 POP JUMP JUMPDEST PUSH1 0x0 DUP1 PUSH32 0x8D336BE257B734A9C9D9C70ACDCCF086C956A38328B0EE2A29E5C0B10062DDD7 SWAP1 POP DUP1 SWAP2 POP POP SWAP1 JUMP JUMPDEST PUSH1 0x2 PUSH1 0x1 SLOAD SUB PUSH2 0x991 JUMPI PUSH1 0x40 MLOAD PUSH32 0x3EE5AEB500000000000000000000000000000000000000000000000000000000 DUP2 MSTORE PUSH1 0x4 ADD PUSH1 0x40 MLOAD DUP1 SWAP2 SUB SWAP1 REVERT JUMPDEST PUSH1 0x2 PUSH1 0x1 DUP2 SWAP1 SSTORE POP JUMP JUMPDEST PUSH1 0x0 PUSH20 0xFFFFFFFFFFFFFFFFFFFFFFFFFFFFFFFFFFFFFFFF AND DUP3 PUSH20 0xFFFFFFFFFFFFFFFFFFFFFFFFFFFFFFFFFFFFFFFF AND SUB PUSH2 0xA01 JUMPI PUSH1 0x40 MLOAD PUSH32 0x44D99FEA00000000000000000000000000000000000000000000000000000000 DUP2 MSTORE PUSH1 0x4 ADD PUSH1 0x40 MLOAD DUP1 SWAP2 SUB SWAP1 REVERT JUMPDEST PUSH1 0x0 DUP5 SUB PUSH2 0xA46 JUMPI DUP4 PUSH1 0x40 MLOAD PUSH32 0x3728B83D00000000000000000000000000000000000000000000000000000000 DUP2 MSTORE PUSH1 0x4 ADD PUSH2 0xA3D SWAP2 SWAP1 PUSH2 0x19B3 JUMP JUMPDEST PUSH1 0x40 MLOAD DUP1 SWAP2 SUB SWAP1 REVERT JUMPDEST PUSH1 0x0 CALLER SWAP1 POP PUSH1 0x0 PUSH20 0xFFFFFFFFFFFFFFFFFFFFFFFFFFFFFFFFFFFFFFFF AND DUP5 PUSH20 0xFFFFFFFFFFFFFFFFFFFFFFFFFFFFFFFFFFFFFFFF AND SUB PUSH2 0xAAD JUMPI PUSH2 0xAA8 DUP6 DUP5 PUSH20 0xFFFFFFFFFFFFFFFFFFFFFFFFFFFFFFFFFFFFFFFF AND PUSH2 0xC98 SWAP1 SWAP2 SWAP1 PUSH4 0xFFFFFFFF AND JUMP JUMPDEST PUSH2 0xADB JUMP JUMPDEST PUSH2 0xADA DUP2 DUP5 DUP8 DUP8 PUSH20 0xFFFFFFFFFFFFFFFFFFFFFFFFFFFFFFFFFFFFFFFF AND PUSH2 0xD85 SWAP1 SWAP4 SWAP3 SWAP2 SWAP1 PUSH4 0xFFFFFFFF AND JUMP JUMPDEST JUMPDEST PUSH1 0x0 PUSH2 0xAE6 DUP3 PUSH2 0x7D0 JUMP JUMPDEST SWAP1 POP PUSH2 0xAF2 DUP3 DUP5 PUSH2 0xEDD JUMP JUMPDEST PUSH2 0xAFB DUP3 PUSH2 0xF50 JUMP JUMPDEST PUSH32 0xD42158EB0EA2DC2DCE92D3CD105F32A6A4DBC2016FD376F6ADBD28BB3DC7B3FB DUP5 DUP4 DUP8 DUP10 DUP8 DUP7 PUSH1 0x40 MLOAD PUSH2 0xB34 SWAP7 SWAP6 SWAP5 SWAP4 SWAP3 SWAP2 SWAP1 PUSH2 0x1B43 JUMP JUMPDEST PUSH1 0x40 MLOAD DUP1 SWAP2 SUB SWAP1 LOG1 POP POP POP POP POP POP JUMP JUMPDEST PUSH1 0x1 DUP1 DUP2 SWAP1 SSTORE POP JUMP JUMPDEST PUSH2 0xB55 PUSH2 0xFB3 JUMP JUMPDEST PUSH20 0xFFFFFFFFFFFFFFFFFFFFFFFFFFFFFFFFFFFFFFFF AND PUSH2 0xB73 PUSH2 0x65E JUMP JUMPDEST PUSH20 0xFFFFFFFFFFFFFFFFFFFFFFFFFFFFFFFFFFFFFFFF AND EQ PUSH2 0xBD2 JUMPI PUSH2 0xB96 PUSH2 0xFB3 JUMP JUMPDEST PUSH1 0x40 MLOAD PUSH32 0x118CDAA700000000000000000000000000000000000000000000000000000000 DUP2 MSTORE PUSH1 0x4 ADD PUSH2 0xBC9 SWAP2 SWAP1 PUSH2 0x1903 JUMP JUMPDEST PUSH1 0x40 MLOAD DUP1 SWAP2 SUB SWAP1 REVERT JUMPDEST JUMP JUMPDEST PUSH1 0x0 DUP1 PUSH1 0x0 SWAP1 SLOAD SWAP1 PUSH2 0x100 EXP SWAP1 DIV PUSH20 0xFFFFFFFFFFFFFFFFFFFFFFFFFFFFFFFFFFFFFFFF AND SWAP1 POP DUP2 PUSH1 0x0 DUP1 PUSH2 0x100 EXP DUP2 SLOAD DUP2 PUSH20 0xFFFFFFFFFFFFFFFFFFFFFFFFFFFFFFFFFFFFFFFF MUL NOT AND SWAP1 DUP4 PUSH20 0xFFFFFFFFFFFFFFFFFFFFFFFFFFFFFFFFFFFFFFFF AND MUL OR SWAP1 SSTORE POP DUP2 PUSH20 0xFFFFFFFFFFFFFFFFFFFFFFFFFFFFFFFFFFFFFFFF AND DUP2 PUSH20 0xFFFFFFFFFFFFFFFFFFFFFFFFFFFFFFFFFFFFFFFF AND PUSH32 0x8BE0079C531659141344CD1FD0A4F28419497F9722A3DAAFE3B4186F6B6457E0 PUSH1 0x40 MLOAD PUSH1 0x40 MLOAD DUP1 SWAP2 SUB SWAP1 LOG3 POP POP JUMP JUMPDEST DUP1 SELFBALANCE LT ISZERO PUSH2 0xCDD JUMPI ADDRESS PUSH1 0x40 MLOAD PUSH32 0xCD78605900000000000000000000000000000000000000000000000000000000 DUP2 MSTORE PUSH1 0x4 ADD PUSH2 0xCD4 SWAP2 SWAP1 PUSH2 0x1903 JUMP JUMPDEST PUSH1 0x40 MLOAD DUP1 SWAP2 SUB SWAP1 REVERT JUMPDEST PUSH1 0x0 DUP3 PUSH20 0xFFFFFFFFFFFFFFFFFFFFFFFFFFFFFFFFFFFFFFFF AND DUP3 PUSH1 0x40 MLOAD PUSH2 0xD03 SWAP1 PUSH2 0x1BDC JUMP JUMPDEST PUSH1 0x0 PUSH1 0x40 MLOAD DUP1 DUP4 SUB DUP2 DUP6 DUP8 GAS CALL SWAP3 POP POP POP RETURNDATASIZE DUP1 PUSH1 0x0 DUP2 EQ PUSH2 0xD40 JUMPI PUSH1 0x40 MLOAD SWAP2 POP PUSH1 0x1F NOT PUSH1 0x3F RETURNDATASIZE ADD AND DUP3 ADD PUSH1 0x40 MSTORE RETURNDATASIZE DUP3 MSTORE RETURNDATASIZE PUSH1 0x0 PUSH1 0x20 DUP5 ADD RETURNDATACOPY PUSH2 0xD45 JUMP JUMPDEST PUSH1 0x60 SWAP2 POP JUMPDEST POP POP SWAP1 POP DUP1 PUSH2 0xD80 JUMPI PUSH1 0x40 MLOAD PUSH32 0x1425EA4200000000000000000000000000000000000000000000000000000000 DUP2 MSTORE PUSH1 0x4 ADD PUSH1 0x40 MLOAD DUP1 SWAP2 SUB SWAP1 REVERT JUMPDEST POP POP POP JUMP JUMPDEST PUSH2 0xE01 DUP5 DUP6 PUSH20 0xFFFFFFFFFFFFFFFFFFFFFFFFFFFFFFFFFFFFFFFF AND PUSH4 0x23B872DD DUP7 DUP7 DUP7 PUSH1 0x40 MLOAD PUSH1 0x24 ADD PUSH2 0xDBA SWAP4 SWAP3 SWAP2 SWAP1 PUSH2 0x1BF1 JUMP JUMPDEST PUSH1 0x40 MLOAD PUSH1 0x20 DUP2 DUP4 SUB SUB DUP2 MSTORE SWAP1 PUSH1 0x40 MSTORE SWAP2 POP PUSH1 0xE0 SHL PUSH1 0x20 DUP3 ADD DUP1 MLOAD PUSH28 0xFFFFFFFFFFFFFFFFFFFFFFFFFFFFFFFFFFFFFFFFFFFFFFFFFFFFFFFF DUP4 DUP2 DUP4 AND OR DUP4 MSTORE POP POP POP POP PUSH2 0xFBB JUMP JUMPDEST POP POP POP POP JUMP JUMPDEST DUP1 PUSH2 0xE10 PUSH2 0x928 JUMP JUMPDEST PUSH1 0x3 ADD PUSH1 0x0 DUP5 PUSH20 0xFFFFFFFFFFFFFFFFFFFFFFFFFFFFFFFFFFFFFFFF AND PUSH20 0xFFFFFFFFFFFFFFFFFFFFFFFFFFFFFFFFFFFFFFFF AND DUP2 MSTORE PUSH1 0x20 ADD SWAP1 DUP2 MSTORE PUSH1 0x20 ADD PUSH1 0x0 KECCAK256 PUSH1 0x0 PUSH2 0xE5B DUP6 PUSH2 0x8D6 JUMP JUMPDEST DUP2 MSTORE PUSH1 0x20 ADD SWAP1 DUP2 MSTORE PUSH1 0x20 ADD PUSH1 0x0 KECCAK256 SWAP1 DUP2 PUSH2 0xE75 SWAP2 SWAP1 PUSH2 0x1E2A JUMP JUMPDEST POP POP POP JUMP JUMPDEST PUSH1 0x1 PUSH2 0xE84 PUSH2 0x928 JUMP JUMPDEST PUSH1 0x1 ADD PUSH1 0x0 DUP4 PUSH20 0xFFFFFFFFFFFFFFFFFFFFFFFFFFFFFFFFFFFFFFFF AND PUSH20 0xFFFFFFFFFFFFFFFFFFFFFFFFFFFFFFFFFFFFFFFF AND DUP2 MSTORE PUSH1 0x20 ADD SWAP1 DUP2 MSTORE PUSH1 0x20 ADD PUSH1 0x0 KECCAK256 PUSH1 0x0 DUP3 DUP3 SLOAD PUSH2 0xED3 SWAP2 SWAP1 PUSH2 0x1F2B JUMP JUMPDEST SWAP3 POP POP DUP2 SWAP1 SSTORE POP POP JUMP JUMPDEST DUP1 PUSH2 0xEE6 PUSH2 0x928 JUMP JUMPDEST PUSH1 0x4 ADD PUSH1 0x0 DUP5 PUSH20 0xFFFFFFFFFFFFFFFFFFFFFFFFFFFFFFFFFFFFFFFF AND PUSH20 0xFFFFFFFFFFFFFFFFFFFFFFFFFFFFFFFFFFFFFFFF AND DUP2 MSTORE PUSH1 0x20 ADD SWAP1 DUP2 MSTORE PUSH1 0x20 ADD PUSH1 0x0 KECCAK256 PUSH1 0x0 PUSH2 0xF31 DUP6 PUSH2 0x7D0 JUMP JUMPDEST DUP2 MSTORE PUSH1 0x20 ADD SWAP1 DUP2 MSTORE PUSH1 0x20 ADD PUSH1 0x0 KECCAK256 SWAP1 DUP2 PUSH2 0xF4B SWAP2 SWAP1 PUSH2 0x1E2A JUMP JUMPDEST POP POP POP JUMP JUMPDEST PUSH1 0x1 PUSH2 0xF5A PUSH2 0x928 JUMP JUMPDEST PUSH1 0x2 ADD PUSH1 0x0 DUP4 PUSH20 0xFFFFFFFFFFFFFFFFFFFFFFFFFFFFFFFFFFFFFFFF AND PUSH20 0xFFFFFFFFFFFFFFFFFFFFFFFFFFFFFFFFFFFFFFFF AND DUP2 MSTORE PUSH1 0x20 ADD SWAP1 DUP2 MSTORE PUSH1 0x20 ADD PUSH1 0x0 KECCAK256 PUSH1 0x0 DUP3 DUP3 SLOAD PUSH2 0xFA9 SWAP2 SWAP1 PUSH2 0x1F2B JUMP JUMPDEST SWAP3 POP POP DUP2 SWAP1 SSTORE POP POP JUMP JUMPDEST PUSH1 0x0 CALLER SWAP1 POP SWAP1 JUMP JUMPDEST PUSH1 0x0 PUSH2 0xFE6 DUP3 DUP5 PUSH20 0xFFFFFFFFFFFFFFFFFFFFFFFFFFFFFFFFFFFFFFFF AND PUSH2 0x1052 SWAP1 SWAP2 SWAP1 PUSH4 0xFFFFFFFF AND JUMP JUMPDEST SWAP1 POP PUSH1 0x0 DUP2 MLOAD EQ ISZERO DUP1 ISZERO PUSH2 0x100B JUMPI POP DUP1 DUP1 PUSH1 0x20 ADD SWAP1 MLOAD DUP2 ADD SWAP1 PUSH2 0x1009 SWAP2 SWAP1 PUSH2 0x1F74 JUMP JUMPDEST ISZERO JUMPDEST ISZERO PUSH2 0x104D JUMPI DUP3 PUSH1 0x40 MLOAD PUSH32 0x5274AFE700000000000000000000000000000000000000000000000000000000 DUP2 MSTORE PUSH1 0x4 ADD PUSH2 0x1044 SWAP2 SWAP1 PUSH2 0x1903 JUMP JUMPDEST PUSH1 0x40 MLOAD DUP1 SWAP2 SUB SWAP1 REVERT JUMPDEST POP POP POP JUMP JUMPDEST PUSH1 0x60 PUSH2 0x1060 DUP4 DUP4 PUSH1 0x0 PUSH2 0x1068 JUMP JUMPDEST SWAP1 POP SWAP3 SWAP2 POP POP JUMP JUMPDEST PUSH1 0x60 DUP2 SELFBALANCE LT ISZERO PUSH2 0x10AF JUMPI ADDRESS PUSH1 0x40 MLOAD PUSH32 0xCD78605900000000000000000000000000000000000000000000000000000000 DUP2 MSTORE PUSH1 0x4 ADD PUSH2 0x10A6 SWAP2 SWAP1 PUSH2 0x1903 JUMP JUMPDEST PUSH1 0x40 MLOAD DUP1 SWAP2 SUB SWAP1 REVERT JUMPDEST PUSH1 0x0 DUP1 DUP6 PUSH20 0xFFFFFFFFFFFFFFFFFFFFFFFFFFFFFFFFFFFFFFFF AND DUP5 DUP7 PUSH1 0x40 MLOAD PUSH2 0x10D8 SWAP2 SWAP1 PUSH2 0x1FD2 JUMP JUMPDEST PUSH1 0x0 PUSH1 0x40 MLOAD DUP1 DUP4 SUB DUP2 DUP6 DUP8 GAS CALL SWAP3 POP POP POP RETURNDATASIZE DUP1 PUSH1 0x0 DUP2 EQ PUSH2 0x1115 JUMPI PUSH1 0x40 MLOAD SWAP2 POP PUSH1 0x1F NOT PUSH1 0x3F RETURNDATASIZE ADD AND DUP3 ADD PUSH1 0x40 MSTORE RETURNDATASIZE DUP3 MSTORE RETURNDATASIZE PUSH1 0x0 PUSH1 0x20 DUP5 ADD RETURNDATACOPY PUSH2 0x111A JUMP JUMPDEST PUSH1 0x60 SWAP2 POP JUMPDEST POP SWAP2 POP SWAP2 POP PUSH2 0x112A DUP7 DUP4 DUP4 PUSH2 0x1135 JUMP JUMPDEST SWAP3 POP POP POP SWAP4 SWAP3 POP POP POP JUMP JUMPDEST PUSH1 0x60 DUP3 PUSH2 0x114A JUMPI PUSH2 0x1145 DUP3 PUSH2 0x11C4 JUMP JUMPDEST PUSH2 0x11BC JUMP JUMPDEST PUSH1 0x0 DUP3 MLOAD EQ DUP1 ISZERO PUSH2 0x1172 JUMPI POP PUSH1 0x0 DUP5 PUSH20 0xFFFFFFFFFFFFFFFFFFFFFFFFFFFFFFFFFFFFFFFF AND EXTCODESIZE EQ JUMPDEST ISZERO PUSH2 0x11B4 JUMPI DUP4 PUSH1 0x40 MLOAD PUSH32 0x9996B31500000000000000000000000000000000000000000000000000000000 DUP2 MSTORE PUSH1 0x4 ADD PUSH2 0x11AB SWAP2 SWAP1 PUSH2 0x1903 JUMP JUMPDEST PUSH1 0x40 MLOAD DUP1 SWAP2 SUB SWAP1 REVERT JUMPDEST DUP2 SWAP1 POP PUSH2 0x11BD JUMP JUMPDEST JUMPDEST SWAP4 SWAP3 POP POP POP JUMP JUMPDEST PUSH1 0x0 DUP2 MLOAD GT ISZERO PUSH2 0x11D7 JUMPI DUP1 MLOAD DUP1 DUP3 PUSH1 0x20 ADD REVERT JUMPDEST PUSH1 0x40 MLOAD PUSH32 0x1425EA4200000000000000000000000000000000000000000000000000000000 DUP2 MSTORE PUSH1 0x4 ADD PUSH1 0x40 MLOAD DUP1 SWAP2 SUB SWAP1 REVERT JUMPDEST PUSH1 0x0 PUSH1 0x40 MLOAD SWAP1 POP SWAP1 JUMP JUMPDEST PUSH1 0x0 DUP1 REVERT JUMPDEST PUSH1 0x0 DUP1 REVERT JUMPDEST PUSH1 0x0 DUP1 REVERT JUMPDEST PUSH1 0x0 PUSH1 0x1F NOT PUSH1 0x1F DUP4 ADD AND SWAP1 POP SWAP2 SWAP1 POP JUMP JUMPDEST PUSH32 0x4E487B7100000000000000000000000000000000000000000000000000000000 PUSH1 0x0 MSTORE PUSH1 0x41 PUSH1 0x4 MSTORE PUSH1 0x24 PUSH1 0x0 REVERT JUMPDEST PUSH2 0x126B DUP3 PUSH2 0x1222 JUMP JUMPDEST DUP2 ADD DUP2 DUP2 LT PUSH8 0xFFFFFFFFFFFFFFFF DUP3 GT OR ISZERO PUSH2 0x128A JUMPI PUSH2 0x1289 PUSH2 0x1233 JUMP JUMPDEST JUMPDEST DUP1 PUSH1 0x40 MSTORE POP POP POP JUMP JUMPDEST PUSH1 0x0 PUSH2 0x129D PUSH2 0x1209 JUMP JUMPDEST SWAP1 POP PUSH2 0x12A9 DUP3 DUP3 PUSH2 0x1262 JUMP JUMPDEST SWAP2 SWAP1 POP JUMP JUMPDEST PUSH1 0x0 PUSH8 0xFFFFFFFFFFFFFFFF DUP3 GT ISZERO PUSH2 0x12C9 JUMPI PUSH2 0x12C8 PUSH2 0x1233 JUMP JUMPDEST JUMPDEST PUSH1 0x20 DUP3 MUL SWAP1 POP PUSH1 0x20 DUP2 ADD SWAP1 POP SWAP2 SWAP1 POP JUMP JUMPDEST PUSH1 0x0 DUP1 REVERT JUMPDEST PUSH1 0x0 DUP2 SWAP1 POP SWAP2 SWAP1 POP JUMP JUMPDEST PUSH2 0x12F2 DUP2 PUSH2 0x12DF JUMP JUMPDEST DUP2 EQ PUSH2 0x12FD JUMPI PUSH1 0x0 DUP1 REVERT JUMPDEST POP JUMP JUMPDEST PUSH1 0x0 DUP2 CALLDATALOAD SWAP1 POP PUSH2 0x130F DUP2 PUSH2 0x12E9 JUMP JUMPDEST SWAP3 SWAP2 POP POP JUMP JUMPDEST PUSH1 0x0 PUSH2 0x1328 PUSH2 0x1323 DUP5 PUSH2 0x12AE JUMP JUMPDEST PUSH2 0x1293 JUMP JUMPDEST SWAP1 POP DUP1 DUP4 DUP3 MSTORE PUSH1 0x20 DUP3 ADD SWAP1 POP PUSH1 0x20 DUP5 MUL DUP4 ADD DUP6 DUP2 GT ISZERO PUSH2 0x134B JUMPI PUSH2 0x134A PUSH2 0x12DA JUMP JUMPDEST JUMPDEST DUP4 JUMPDEST DUP2 DUP2 LT ISZERO PUSH2 0x1374 JUMPI DUP1 PUSH2 0x1360 DUP9 DUP3 PUSH2 0x1300 JUMP JUMPDEST DUP5 MSTORE PUSH1 0x20 DUP5 ADD SWAP4 POP POP PUSH1 0x20 DUP2 ADD SWAP1 POP PUSH2 0x134D JUMP JUMPDEST POP POP POP SWAP4 SWAP3 POP POP POP JUMP JUMPDEST PUSH1 0x0 DUP3 PUSH1 0x1F DUP4 ADD SLT PUSH2 0x1393 JUMPI PUSH2 0x1392 PUSH2 0x121D JUMP JUMPDEST JUMPDEST DUP2 CALLDATALOAD PUSH2 0x13A3 DUP5 DUP3 PUSH1 0x20 DUP7 ADD PUSH2 0x1315 JUMP JUMPDEST SWAP2 POP POP SWAP3 SWAP2 POP POP JUMP JUMPDEST PUSH1 0x0 PUSH8 0xFFFFFFFFFFFFFFFF DUP3 GT ISZERO PUSH2 0x13C7 JUMPI PUSH2 0x13C6 PUSH2 0x1233 JUMP JUMPDEST JUMPDEST PUSH1 0x20 DUP3 MUL SWAP1 POP PUSH1 0x20 DUP2 ADD SWAP1 POP SWAP2 SWAP1 POP JUMP JUMPDEST PUSH1 0x0 PUSH20 0xFFFFFFFFFFFFFFFFFFFFFFFFFFFFFFFFFFFFFFFF DUP3 AND SWAP1 POP SWAP2 SWAP1 POP JUMP JUMPDEST PUSH1 0x0 PUSH2 0x1403 DUP3 PUSH2 0x13D8 JUMP JUMPDEST SWAP1 POP SWAP2 SWAP1 POP JUMP JUMPDEST PUSH2 0x1413 DUP2 PUSH2 0x13F8 JUMP JUMPDEST DUP2 EQ PUSH2 0x141E JUMPI PUSH1 0x0 DUP1 REVERT JUMPDEST POP JUMP JUMPDEST PUSH1 0x0 DUP2 CALLDATALOAD SWAP1 POP PUSH2 0x1430 DUP2 PUSH2 0x140A JUMP JUMPDEST SWAP3 SWAP2 POP POP JUMP JUMPDEST PUSH1 0x0 PUSH2 0x1449 PUSH2 0x1444 DUP5 PUSH2 0x13AC JUMP JUMPDEST PUSH2 0x1293 JUMP JUMPDEST SWAP1 POP DUP1 DUP4 DUP3 MSTORE PUSH1 0x20 DUP3 ADD SWAP1 POP PUSH1 0x20 DUP5 MUL DUP4 ADD DUP6 DUP2 GT ISZERO PUSH2 0x146C JUMPI PUSH2 0x146B PUSH2 0x12DA JUMP JUMPDEST JUMPDEST DUP4 JUMPDEST DUP2 DUP2 LT ISZERO PUSH2 0x1495 JUMPI DUP1 PUSH2 0x1481 DUP9 DUP3 PUSH2 0x1421 JUMP JUMPDEST DUP5 MSTORE PUSH1 0x20 DUP5 ADD SWAP4 POP POP PUSH1 0x20 DUP2 ADD SWAP1 POP PUSH2 0x146E JUMP JUMPDEST POP POP POP SWAP4 SWAP3 POP POP POP JUMP JUMPDEST PUSH1 0x0 DUP3 PUSH1 0x1F DUP4 ADD SLT PUSH2 0x14B4 JUMPI PUSH2 0x14B3 PUSH2 0x121D JUMP JUMPDEST JUMPDEST DUP2 CALLDATALOAD PUSH2 0x14C4 DUP5 DUP3 PUSH1 0x20 DUP7 ADD PUSH2 0x1436 JUMP JUMPDEST SWAP2 POP POP SWAP3 SWAP2 POP POP JUMP JUMPDEST PUSH1 0x0 PUSH8 0xFFFFFFFFFFFFFFFF DUP3 GT ISZERO PUSH2 0x14E8 JUMPI PUSH2 0x14E7 PUSH2 0x1233 JUMP JUMPDEST JUMPDEST PUSH1 0x20 DUP3 MUL SWAP1 POP PUSH1 0x20 DUP2 ADD SWAP1 POP SWAP2 SWAP1 POP JUMP JUMPDEST PUSH1 0x0 PUSH2 0x1504 DUP3 PUSH2 0x13D8 JUMP JUMPDEST SWAP1 POP SWAP2 SWAP1 POP JUMP JUMPDEST PUSH2 0x1514 DUP2 PUSH2 0x14F9 JUMP JUMPDEST DUP2 EQ PUSH2 0x151F JUMPI PUSH1 0x0 DUP1 REVERT JUMPDEST POP JUMP JUMPDEST PUSH1 0x0 DUP2 CALLDATALOAD SWAP1 POP PUSH2 0x1531 DUP2 PUSH2 0x150B JUMP JUMPDEST SWAP3 SWAP2 POP POP JUMP JUMPDEST PUSH1 0x0 PUSH2 0x154A PUSH2 0x1545 DUP5 PUSH2 0x14CD JUMP JUMPDEST PUSH2 0x1293 JUMP JUMPDEST SWAP1 POP DUP1 DUP4 DUP3 MSTORE PUSH1 0x20 DUP3 ADD SWAP1 POP PUSH1 0x20 DUP5 MUL DUP4 ADD DUP6 DUP2 GT ISZERO PUSH2 0x156D JUMPI PUSH2 0x156C PUSH2 0x12DA JUMP JUMPDEST JUMPDEST DUP4 JUMPDEST DUP2 DUP2 LT ISZERO PUSH2 0x1596 JUMPI DUP1 PUSH2 0x1582 DUP9 DUP3 PUSH2 0x1522 JUMP JUMPDEST DUP5 MSTORE PUSH1 0x20 DUP5 ADD SWAP4 POP POP PUSH1 0x20 DUP2 ADD SWAP1 POP PUSH2 0x156F JUMP JUMPDEST POP POP POP SWAP4 SWAP3 POP POP POP JUMP JUMPDEST PUSH1 0x0 DUP3 PUSH1 0x1F DUP4 ADD SLT PUSH2 0x15B5 JUMPI PUSH2 0x15B4 PUSH2 0x121D JUMP JUMPDEST JUMPDEST DUP2 CALLDATALOAD PUSH2 0x15C5 DUP5 DUP3 PUSH1 0x20 DUP7 ADD PUSH2 0x1537 JUMP JUMPDEST SWAP2 POP POP SWAP3 SWAP2 POP POP JUMP JUMPDEST PUSH1 0x0 PUSH8 0xFFFFFFFFFFFFFFFF DUP3 GT ISZERO PUSH2 0x15E9 JUMPI PUSH2 0x15E8 PUSH2 0x1233 JUMP JUMPDEST JUMPDEST PUSH1 0x20 DUP3 MUL SWAP1 POP PUSH1 0x20 DUP2 ADD SWAP1 POP SWAP2 SWAP1 POP JUMP JUMPDEST PUSH1 0x0 DUP1 REVERT JUMPDEST PUSH1 0x0 PUSH8 0xFFFFFFFFFFFFFFFF DUP3 GT ISZERO PUSH2 0x161A JUMPI PUSH2 0x1619 PUSH2 0x1233 JUMP JUMPDEST JUMPDEST PUSH2 0x1623 DUP3 PUSH2 0x1222 JUMP JUMPDEST SWAP1 POP PUSH1 0x20 DUP2 ADD SWAP1 POP SWAP2 SWAP1 POP JUMP JUMPDEST DUP3 DUP2 DUP4 CALLDATACOPY PUSH1 0x0 DUP4 DUP4 ADD MSTORE POP POP POP JUMP JUMPDEST PUSH1 0x0 PUSH2 0x1652 PUSH2 0x164D DUP5 PUSH2 0x15FF JUMP JUMPDEST PUSH2 0x1293 JUMP JUMPDEST SWAP1 POP DUP3 DUP2 MSTORE PUSH1 0x20 DUP2 ADD DUP5 DUP5 DUP5 ADD GT ISZERO PUSH2 0x166E JUMPI PUSH2 0x166D PUSH2 0x15FA JUMP JUMPDEST JUMPDEST PUSH2 0x1679 DUP5 DUP3 DUP6 PUSH2 0x1630 JUMP JUMPDEST POP SWAP4 SWAP3 POP POP POP JUMP JUMPDEST PUSH1 0x0 DUP3 PUSH1 0x1F DUP4 ADD SLT PUSH2 0x1696 JUMPI PUSH2 0x1695 PUSH2 0x121D JUMP JUMPDEST JUMPDEST DUP2 CALLDATALOAD PUSH2 0x16A6 DUP5 DUP3 PUSH1 0x20 DUP7 ADD PUSH2 0x163F JUMP JUMPDEST SWAP2 POP POP SWAP3 SWAP2 POP POP JUMP JUMPDEST PUSH1 0x0 PUSH2 0x16C2 PUSH2 0x16BD DUP5 PUSH2 0x15CE JUMP JUMPDEST PUSH2 0x1293 JUMP JUMPDEST SWAP1 POP DUP1 DUP4 DUP3 MSTORE PUSH1 0x20 DUP3 ADD SWAP1 POP PUSH1 0x20 DUP5 MUL DUP4 ADD DUP6 DUP2 GT ISZERO PUSH2 0x16E5 JUMPI PUSH2 0x16E4 PUSH2 0x12DA JUMP JUMPDEST JUMPDEST DUP4 JUMPDEST DUP2 DUP2 LT ISZERO PUSH2 0x172C JUMPI DUP1 CALLDATALOAD PUSH8 0xFFFFFFFFFFFFFFFF DUP2 GT ISZERO PUSH2 0x170A JUMPI PUSH2 0x1709 PUSH2 0x121D JUMP JUMPDEST JUMPDEST DUP1 DUP7 ADD PUSH2 0x1717 DUP10 DUP3 PUSH2 0x1681 JUMP JUMPDEST DUP6 MSTORE PUSH1 0x20 DUP6 ADD SWAP5 POP POP POP PUSH1 0x20 DUP2 ADD SWAP1 POP PUSH2 0x16E7 JUMP JUMPDEST POP POP POP SWAP4 SWAP3 POP POP POP JUMP JUMPDEST PUSH1 0x0 DUP3 PUSH1 0x1F DUP4 ADD SLT PUSH2 0x174B JUMPI PUSH2 0x174A PUSH2 0x121D JUMP JUMPDEST JUMPDEST DUP2 CALLDATALOAD PUSH2 0x175B DUP5 DUP3 PUSH1 0x20 DUP7 ADD PUSH2 0x16AF JUMP JUMPDEST SWAP2 POP POP SWAP3 SWAP2 POP POP JUMP JUMPDEST PUSH1 0x0 DUP1 PUSH1 0x0 DUP1 PUSH1 0x80 DUP6 DUP8 SUB SLT ISZERO PUSH2 0x177E JUMPI PUSH2 0x177D PUSH2 0x1213 JUMP JUMPDEST JUMPDEST PUSH1 0x0 DUP6 ADD CALLDATALOAD PUSH8 0xFFFFFFFFFFFFFFFF DUP2 GT ISZERO PUSH2 0x179C JUMPI PUSH2 0x179B PUSH2 0x1218 JUMP JUMPDEST JUMPDEST PUSH2 0x17A8 DUP8 DUP3 DUP9 ADD PUSH2 0x137E JUMP JUMPDEST SWAP5 POP POP PUSH1 0x20 DUP6 ADD CALLDATALOAD PUSH8 0xFFFFFFFFFFFFFFFF DUP2 GT ISZERO PUSH2 0x17C9 JUMPI PUSH2 0x17C8 PUSH2 0x1218 JUMP JUMPDEST JUMPDEST PUSH2 0x17D5 DUP8 DUP3 DUP9 ADD PUSH2 0x149F JUMP JUMPDEST SWAP4 POP POP PUSH1 0x40 DUP6 ADD CALLDATALOAD PUSH8 0xFFFFFFFFFFFFFFFF DUP2 GT ISZERO PUSH2 0x17F6 JUMPI PUSH2 0x17F5 PUSH2 0x1218 JUMP JUMPDEST JUMPDEST PUSH2 0x1802 DUP8 DUP3 DUP9 ADD PUSH2 0x15A0 JUMP JUMPDEST SWAP3 POP POP PUSH1 0x60 DUP6 ADD CALLDATALOAD PUSH8 0xFFFFFFFFFFFFFFFF DUP2 GT ISZERO PUSH2 0x1823 JUMPI PUSH2 0x1822 PUSH2 0x1218 JUMP JUMPDEST JUMPDEST PUSH2 0x182F DUP8 DUP3 DUP9 ADD PUSH2 0x1736 JUMP JUMPDEST SWAP2 POP POP SWAP3 SWAP6 SWAP2 SWAP5 POP SWAP3 POP JUMP JUMPDEST PUSH1 0x0 DUP2 ISZERO ISZERO SWAP1 POP SWAP2 SWAP1 POP JUMP JUMPDEST PUSH2 0x1850 DUP2 PUSH2 0x183B JUMP JUMPDEST DUP3 MSTORE POP POP JUMP JUMPDEST PUSH1 0x0 PUSH1 0x20 DUP3 ADD SWAP1 POP PUSH2 0x186B PUSH1 0x0 DUP4 ADD DUP5 PUSH2 0x1847 JUMP JUMPDEST SWAP3 SWAP2 POP POP JUMP JUMPDEST PUSH1 0x0 DUP1 PUSH1 0x0 DUP1 PUSH1 0x80 DUP6 DUP8 SUB SLT ISZERO PUSH2 0x188B JUMPI PUSH2 0x188A PUSH2 0x1213 JUMP JUMPDEST JUMPDEST PUSH1 0x0 PUSH2 0x1899 DUP8 DUP3 DUP9 ADD PUSH2 0x1300 JUMP JUMPDEST SWAP5 POP POP PUSH1 0x20 PUSH2 0x18AA DUP8 DUP3 DUP9 ADD PUSH2 0x1421 JUMP JUMPDEST SWAP4 POP POP PUSH1 0x40 PUSH2 0x18BB DUP8 DUP3 DUP9 ADD PUSH2 0x1522 JUMP JUMPDEST SWAP3 POP POP PUSH1 0x60 DUP6 ADD CALLDATALOAD PUSH8 0xFFFFFFFFFFFFFFFF DUP2 GT ISZERO PUSH2 0x18DC JUMPI PUSH2 0x18DB PUSH2 0x1218 JUMP JUMPDEST JUMPDEST PUSH2 0x18E8 DUP8 DUP3 DUP9 ADD PUSH2 0x1681 JUMP JUMPDEST SWAP2 POP POP SWAP3 SWAP6 SWAP2 SWAP5 POP SWAP3 POP JUMP JUMPDEST PUSH2 0x18FD DUP2 PUSH2 0x13F8 JUMP JUMPDEST DUP3 MSTORE POP POP JUMP JUMPDEST PUSH1 0x0 PUSH1 0x20 DUP3 ADD SWAP1 POP PUSH2 0x1918 PUSH1 0x0 DUP4 ADD DUP5 PUSH2 0x18F4 JUMP JUMPDEST SWAP3 SWAP2 POP POP JUMP JUMPDEST PUSH2 0x1927 DUP2 PUSH2 0x183B JUMP JUMPDEST DUP2 EQ PUSH2 0x1932 JUMPI PUSH1 0x0 DUP1 REVERT JUMPDEST POP JUMP JUMPDEST PUSH1 0x0 DUP2 CALLDATALOAD SWAP1 POP PUSH2 0x1944 DUP2 PUSH2 0x191E JUMP JUMPDEST SWAP3 SWAP2 POP POP JUMP JUMPDEST PUSH1 0x0 PUSH1 0x20 DUP3 DUP5 SUB SLT ISZERO PUSH2 0x1960 JUMPI PUSH2 0x195F PUSH2 0x1213 JUMP JUMPDEST JUMPDEST PUSH1 0x0 PUSH2 0x196E DUP5 DUP3 DUP6 ADD PUSH2 0x1935 JUMP JUMPDEST SWAP2 POP POP SWAP3 SWAP2 POP POP JUMP JUMPDEST PUSH1 0x0 PUSH1 0x20 DUP3 DUP5 SUB SLT ISZERO PUSH2 0x198D JUMPI PUSH2 0x198C PUSH2 0x1213 JUMP JUMPDEST JUMPDEST PUSH1 0x0 PUSH2 0x199B DUP5 DUP3 DUP6 ADD PUSH2 0x1421 JUMP JUMPDEST SWAP2 POP POP SWAP3 SWAP2 POP POP JUMP JUMPDEST PUSH2 0x19AD DUP2 PUSH2 0x12DF JUMP JUMPDEST DUP3 MSTORE POP POP JUMP JUMPDEST PUSH1 0x0 PUSH1 0x20 DUP3 ADD SWAP1 POP PUSH2 0x19C8 PUSH1 0x0 DUP4 ADD DUP5 PUSH2 0x19A4 JUMP JUMPDEST SWAP3 SWAP2 POP POP JUMP JUMPDEST PUSH32 0x4E487B7100000000000000000000000000000000000000000000000000000000 PUSH1 0x0 MSTORE PUSH1 0x32 PUSH1 0x4 MSTORE PUSH1 0x24 PUSH1 0x0 REVERT JUMPDEST PUSH1 0x0 DUP2 SWAP1 POP SWAP2 SWAP1 POP JUMP JUMPDEST PUSH1 0x0 PUSH2 0x1A22 PUSH2 0x1A1D PUSH2 0x1A18 DUP5 PUSH2 0x13D8 JUMP JUMPDEST PUSH2 0x19FD JUMP JUMPDEST PUSH2 0x13D8 JUMP JUMPDEST SWAP1 POP SWAP2 SWAP1 POP JUMP JUMPDEST PUSH1 0x0 PUSH2 0x1A34 DUP3 PUSH2 0x1A07 JUMP JUMPDEST SWAP1 POP SWAP2 SWAP1 POP JUMP JUMPDEST PUSH1 0x0 PUSH2 0x1A46 DUP3 PUSH2 0x1A29 JUMP JUMPDEST SWAP1 POP SWAP2 SWAP1 POP JUMP JUMPDEST PUSH2 0x1A56 DUP2 PUSH2 0x1A3B JUMP JUMPDEST DUP3 MSTORE POP POP JUMP JUMPDEST PUSH1 0x0 DUP2 MLOAD SWAP1 POP SWAP2 SWAP1 POP JUMP JUMPDEST PUSH1 0x0 DUP3 DUP3 MSTORE PUSH1 0x20 DUP3 ADD SWAP1 POP SWAP3 SWAP2 POP POP JUMP JUMPDEST PUSH1 0x0 JUMPDEST DUP4 DUP2 LT ISZERO PUSH2 0x1A96 JUMPI DUP1 DUP3 ADD MLOAD DUP2 DUP5 ADD MSTORE PUSH1 0x20 DUP2 ADD SWAP1 POP PUSH2 0x1A7B JUMP JUMPDEST PUSH1 0x0 DUP5 DUP5 ADD MSTORE POP POP POP POP JUMP JUMPDEST PUSH1 0x0 PUSH2 0x1AAD DUP3 PUSH2 0x1A5C JUMP JUMPDEST PUSH2 0x1AB7 DUP2 DUP6 PUSH2 0x1A67 JUMP JUMPDEST SWAP4 POP PUSH2 0x1AC7 DUP2 DUP6 PUSH1 0x20 DUP7 ADD PUSH2 0x1A78 JUMP JUMPDEST PUSH2 0x1AD0 DUP2 PUSH2 0x1222 JUMP JUMPDEST DUP5 ADD SWAP2 POP POP SWAP3 SWAP2 POP POP JUMP JUMPDEST PUSH1 0x0 PUSH1 0xC0 DUP3 ADD SWAP1 POP PUSH2 0x1AF0 PUSH1 0x0 DUP4 ADD DUP10 PUSH2 0x18F4 JUMP JUMPDEST PUSH2 0x1AFD PUSH1 0x20 DUP4 ADD DUP9 PUSH2 0x1A4D JUMP JUMPDEST PUSH2 0x1B0A PUSH1 0x40 DUP4 ADD DUP8 PUSH2 0x18F4 JUMP JUMPDEST PUSH2 0x1B17 PUSH1 0x60 DUP4 ADD DUP7 PUSH2 0x19A4 JUMP JUMPDEST DUP2 DUP2 SUB PUSH1 0x80 DUP4 ADD MSTORE PUSH2 0x1B29 DUP2 DUP6 PUSH2 0x1AA2 JUMP JUMPDEST SWAP1 POP PUSH2 0x1B38 PUSH1 0xA0 DUP4 ADD DUP5 PUSH2 0x19A4 JUMP JUMPDEST SWAP8 SWAP7 POP POP POP POP POP POP POP JUMP JUMPDEST PUSH1 0x0 PUSH1 0xC0 DUP3 ADD SWAP1 POP PUSH2 0x1B58 PUSH1 0x0 DUP4 ADD DUP10 PUSH2 0x1A4D JUMP JUMPDEST PUSH2 0x1B65 PUSH1 0x20 DUP4 ADD DUP9 PUSH2 0x18F4 JUMP JUMPDEST PUSH2 0x1B72 PUSH1 0x40 DUP4 ADD DUP8 PUSH2 0x18F4 JUMP JUMPDEST PUSH2 0x1B7F PUSH1 0x60 DUP4 ADD DUP7 PUSH2 0x19A4 JUMP JUMPDEST DUP2 DUP2 SUB PUSH1 0x80 DUP4 ADD MSTORE PUSH2 0x1B91 DUP2 DUP6 PUSH2 0x1AA2 JUMP JUMPDEST SWAP1 POP PUSH2 0x1BA0 PUSH1 0xA0 DUP4 ADD DUP5 PUSH2 0x19A4 JUMP JUMPDEST SWAP8 SWAP7 POP POP POP POP POP POP POP JUMP JUMPDEST PUSH1 0x0 DUP2 SWAP1 POP SWAP3 SWAP2 POP POP JUMP JUMPDEST POP JUMP JUMPDEST PUSH1 0x0 PUSH2 0x1BC6 PUSH1 0x0 DUP4 PUSH2 0x1BAB JUMP JUMPDEST SWAP2 POP PUSH2 0x1BD1 DUP3 PUSH2 0x1BB6 JUMP JUMPDEST PUSH1 0x0 DUP3 ADD SWAP1 POP SWAP2 SWAP1 POP JUMP JUMPDEST PUSH1 0x0 PUSH2 0x1BE7 DUP3 PUSH2 0x1BB9 JUMP JUMPDEST SWAP2 POP DUP2 SWAP1 POP SWAP2 SWAP1 POP JUMP JUMPDEST PUSH1 0x0 PUSH1 0x60 DUP3 ADD SWAP1 POP PUSH2 0x1C06 PUSH1 0x0 DUP4 ADD DUP7 PUSH2 0x18F4 JUMP JUMPDEST PUSH2 0x1C13 PUSH1 0x20 DUP4 ADD DUP6 PUSH2 0x18F4 JUMP JUMPDEST PUSH2 0x1C20 PUSH1 0x40 DUP4 ADD DUP5 PUSH2 0x19A4 JUMP JUMPDEST SWAP5 SWAP4 POP POP POP POP JUMP JUMPDEST PUSH32 0x4E487B7100000000000000000000000000000000000000000000000000000000 PUSH1 0x0 MSTORE PUSH1 0x22 PUSH1 0x4 MSTORE PUSH1 0x24 PUSH1 0x0 REVERT JUMPDEST PUSH1 0x0 PUSH1 0x2 DUP3 DIV SWAP1 POP PUSH1 0x1 DUP3 AND DUP1 PUSH2 0x1C6F JUMPI PUSH1 0x7F DUP3 AND SWAP2 POP JUMPDEST PUSH1 0x20 DUP3 LT DUP2 SUB PUSH2 0x1C82 JUMPI PUSH2 0x1C81 PUSH2 0x1C28 JUMP JUMPDEST JUMPDEST POP SWAP2 SWAP1 POP JUMP JUMPDEST PUSH1 0x0 DUP2 SWAP1 POP DUP2 PUSH1 0x0 MSTORE PUSH1 0x20 PUSH1 0x0 KECCAK256 SWAP1 POP SWAP2 SWAP1 POP JUMP JUMPDEST PUSH1 0x0 PUSH1 0x20 PUSH1 0x1F DUP4 ADD DIV SWAP1 POP SWAP2 SWAP1 POP JUMP JUMPDEST PUSH1 0x0 DUP3 DUP3 SHL SWAP1 POP SWAP3 SWAP2 POP POP JUMP JUMPDEST PUSH1 0x0 PUSH1 0x8 DUP4 MUL PUSH2 0x1CEA PUSH32 0xFFFFFFFFFFFFFFFFFFFFFFFFFFFFFFFFFFFFFFFFFFFFFFFFFFFFFFFFFFFFFFFF DUP3 PUSH2 0x1CAD JUMP JUMPDEST PUSH2 0x1CF4 DUP7 DUP4 PUSH2 0x1CAD JUMP JUMPDEST SWAP6 POP DUP1 NOT DUP5 AND SWAP4 POP DUP1 DUP7 AND DUP5 OR SWAP3 POP POP POP SWAP4 SWAP3 POP POP POP JUMP JUMPDEST PUSH1 0x0 PUSH2 0x1D27 PUSH2 0x1D22 PUSH2 0x1D1D DUP5 PUSH2 0x12DF JUMP JUMPDEST PUSH2 0x19FD JUMP JUMPDEST PUSH2 0x12DF JUMP JUMPDEST SWAP1 POP SWAP2 SWAP1 POP JUMP JUMPDEST PUSH1 0x0 DUP2 SWAP1 POP SWAP2 SWAP1 POP JUMP JUMPDEST PUSH2 0x1D41 DUP4 PUSH2 0x1D0C JUMP JUMPDEST PUSH2 0x1D55 PUSH2 0x1D4D DUP3 PUSH2 0x1D2E JUMP JUMPDEST DUP5 DUP5 SLOAD PUSH2 0x1CBA JUMP JUMPDEST DUP3 SSTORE POP POP POP POP JUMP JUMPDEST PUSH1 0x0 SWAP1 JUMP JUMPDEST PUSH2 0x1D6A PUSH2 0x1D5D JUMP JUMPDEST PUSH2 0x1D75 DUP2 DUP5 DUP5 PUSH2 0x1D38 JUMP JUMPDEST POP POP POP JUMP JUMPDEST JUMPDEST DUP2 DUP2 LT ISZERO PUSH2 0x1D99 JUMPI PUSH2 0x1D8E PUSH1 0x0 DUP3 PUSH2 0x1D62 JUMP JUMPDEST PUSH1 0x1 DUP2 ADD SWAP1 POP PUSH2 0x1D7B JUMP JUMPDEST POP POP JUMP JUMPDEST PUSH1 0x1F DUP3 GT ISZERO PUSH2 0x1DDE JUMPI PUSH2 0x1DAF DUP2 PUSH2 0x1C88 JUMP JUMPDEST PUSH2 0x1DB8 DUP5 PUSH2 0x1C9D JUMP JUMPDEST DUP2 ADD PUSH1 0x20 DUP6 LT ISZERO PUSH2 0x1DC7 JUMPI DUP2 SWAP1 POP JUMPDEST PUSH2 0x1DDB PUSH2 0x1DD3 DUP6 PUSH2 0x1C9D JUMP JUMPDEST DUP4 ADD DUP3 PUSH2 0x1D7A JUMP JUMPDEST POP POP JUMPDEST POP POP POP JUMP JUMPDEST PUSH1 0x0 DUP3 DUP3 SHR SWAP1 POP SWAP3 SWAP2 POP POP JUMP JUMPDEST PUSH1 0x0 PUSH2 0x1E01 PUSH1 0x0 NOT DUP5 PUSH1 0x8 MUL PUSH2 0x1DE3 JUMP JUMPDEST NOT DUP1 DUP4 AND SWAP2 POP POP SWAP3 SWAP2 POP POP JUMP JUMPDEST PUSH1 0x0 PUSH2 0x1E1A DUP4 DUP4 PUSH2 0x1DF0 JUMP JUMPDEST SWAP2 POP DUP3 PUSH1 0x2 MUL DUP3 OR SWAP1 POP SWAP3 SWAP2 POP POP JUMP JUMPDEST PUSH2 0x1E33 DUP3 PUSH2 0x1A5C JUMP JUMPDEST PUSH8 0xFFFFFFFFFFFFFFFF DUP2 GT ISZERO PUSH2 0x1E4C JUMPI PUSH2 0x1E4B PUSH2 0x1233 JUMP JUMPDEST JUMPDEST PUSH2 0x1E56 DUP3 SLOAD PUSH2 0x1C57 JUMP JUMPDEST PUSH2 0x1E61 DUP3 DUP3 DUP6 PUSH2 0x1D9D JUMP JUMPDEST PUSH1 0x0 PUSH1 0x20 SWAP1 POP PUSH1 0x1F DUP4 GT PUSH1 0x1 DUP2 EQ PUSH2 0x1E94 JUMPI PUSH1 0x0 DUP5 ISZERO PUSH2 0x1E82 JUMPI DUP3 DUP8 ADD MLOAD SWAP1 POP JUMPDEST PUSH2 0x1E8C DUP6 DUP3 PUSH2 0x1E0E JUMP JUMPDEST DUP7 SSTORE POP PUSH2 0x1EF4 JUMP JUMPDEST PUSH1 0x1F NOT DUP5 AND PUSH2 0x1EA2 DUP7 PUSH2 0x1C88 JUMP JUMPDEST PUSH1 0x0 JUMPDEST DUP3 DUP2 LT ISZERO PUSH2 0x1ECA JUMPI DUP5 DUP10 ADD MLOAD DUP3 SSTORE PUSH1 0x1 DUP3 ADD SWAP2 POP PUSH1 0x20 DUP6 ADD SWAP5 POP PUSH1 0x20 DUP2 ADD SWAP1 POP PUSH2 0x1EA5 JUMP JUMPDEST DUP7 DUP4 LT ISZERO PUSH2 0x1EE7 JUMPI DUP5 DUP10 ADD MLOAD PUSH2 0x1EE3 PUSH1 0x1F DUP10 AND DUP3 PUSH2 0x1DF0 JUMP JUMPDEST DUP4 SSTORE POP JUMPDEST PUSH1 0x1 PUSH1 0x2 DUP9 MUL ADD DUP9 SSTORE POP POP POP JUMPDEST POP POP POP POP POP POP JUMP JUMPDEST PUSH32 0x4E487B7100000000000000000000000000000000000000000000000000000000 PUSH1 0x0 MSTORE PUSH1 0x11 PUSH1 0x4 MSTORE PUSH1 0x24 PUSH1 0x0 REVERT JUMPDEST PUSH1 0x0 PUSH2 0x1F36 DUP3 PUSH2 0x12DF JUMP JUMPDEST SWAP2 POP PUSH2 0x1F41 DUP4 PUSH2 0x12DF JUMP JUMPDEST SWAP3 POP DUP3 DUP3 ADD SWAP1 POP DUP1 DUP3 GT ISZERO PUSH2 0x1F59 JUMPI PUSH2 0x1F58 PUSH2 0x1EFC JUMP JUMPDEST JUMPDEST SWAP3 SWAP2 POP POP JUMP JUMPDEST PUSH1 0x0 DUP2 MLOAD SWAP1 POP PUSH2 0x1F6E DUP2 PUSH2 0x191E JUMP JUMPDEST SWAP3 SWAP2 POP POP JUMP JUMPDEST PUSH1 0x0 PUSH1 0x20 DUP3 DUP5 SUB SLT ISZERO PUSH2 0x1F8A JUMPI PUSH2 0x1F89 PUSH2 0x1213 JUMP JUMPDEST JUMPDEST PUSH1 0x0 PUSH2 0x1F98 DUP5 DUP3 DUP6 ADD PUSH2 0x1F5F JUMP JUMPDEST SWAP2 POP POP SWAP3 SWAP2 POP POP JUMP JUMPDEST PUSH1 0x0 PUSH2 0x1FAC DUP3 PUSH2 0x1A5C JUMP JUMPDEST PUSH2 0x1FB6 DUP2 DUP6 PUSH2 0x1BAB JUMP JUMPDEST SWAP4 POP PUSH2 0x1FC6 DUP2 DUP6 PUSH1 0x20 DUP7 ADD PUSH2 0x1A78 JUMP JUMPDEST DUP1 DUP5 ADD SWAP2 POP POP SWAP3 SWAP2 POP POP JUMP JUMPDEST PUSH1 0x0 PUSH2 0x1FDE DUP3 DUP5 PUSH2 0x1FA1 JUMP JUMPDEST SWAP2 POP DUP2 SWAP1 POP SWAP3 SWAP2 POP POP JUMP INVALID LOG2 PUSH5 0x6970667358 0x22 SLT KECCAK256 CALL 0xE6 0xE6 JUMPI 0x4D 0xDE DUP4 PUSH6 0xAD4944284E4E 0xFC GT PUSH11 0x41631BE5B50175EAC53192 0xE5 0x4C DUP13 DUP16 PUSH5 0x736F6C6343 STOP ADDMOD XOR STOP CALLER "
        },
        "methodIdentifiers": {
          "bridge(uint256,address,address,bytes)": "78499054",
          "bridgeIndex(address)": "fba07f5f",
          "initialize(bool)": "d53a822f",
          "isEnabled()": "6aa633b6",
          "multiRelease(uint256[],address[],address[],bytes[])": "14ed8da7",
          "owner()": "8da5cb5b",
          "release(uint256,address,address,bytes)": "c4b7f65b",
          "releaseIndex(address)": "d5016af7",
          "renounceOwnership()": "715018a6",
          "setIsEnabled(bool)": "b6f97501",
          "transferOwnership(address)": "f2fde38b"
        }
      }
    }
  }
}